{
  "_format": "hh-sol-artifact-1",
  "contractName": "MiningStaking",
  "sourceName": "contracts/MiningStaking.sol",
  "abi": [
    {
      "inputs": [
        {
          "internalType": "address",
          "name": "_fairToken",
          "type": "address"
        },
        {
          "internalType": "address",
          "name": "_fairMiner",
          "type": "address"
        }
      ],
      "stateMutability": "nonpayable",
      "type": "constructor"
    },
    {
      "inputs": [],
      "name": "EnforcedPause",
      "type": "error"
    },
    {
      "inputs": [],
      "name": "ExpectedPause",
      "type": "error"
    },
    {
      "inputs": [
        {
          "internalType": "address",
          "name": "owner",
          "type": "address"
        }
      ],
      "name": "OwnableInvalidOwner",
      "type": "error"
    },
    {
      "inputs": [
        {
          "internalType": "address",
          "name": "account",
          "type": "address"
        }
      ],
      "name": "OwnableUnauthorizedAccount",
      "type": "error"
    },
    {
      "inputs": [],
      "name": "ReentrancyGuardReentrantCall",
      "type": "error"
    },
    {
      "anonymous": false,
      "inputs": [
        {
          "indexed": false,
          "internalType": "uint256",
          "name": "startTime",
          "type": "uint256"
        }
      ],
      "name": "EmissionStarted",
      "type": "event"
    },
    {
      "anonymous": false,
      "inputs": [
        {
          "indexed": true,
          "internalType": "address",
          "name": "previousOwner",
          "type": "address"
        },
        {
          "indexed": true,
          "internalType": "address",
          "name": "newOwner",
          "type": "address"
        }
      ],
      "name": "OwnershipTransferred",
      "type": "event"
    },
    {
      "anonymous": false,
      "inputs": [
        {
          "indexed": false,
          "internalType": "address",
          "name": "account",
          "type": "address"
        }
      ],
      "name": "Paused",
      "type": "event"
    },
    {
      "anonymous": false,
      "inputs": [
        {
          "indexed": true,
          "internalType": "address",
          "name": "user",
          "type": "address"
        },
        {
          "indexed": false,
          "internalType": "uint256",
          "name": "amount",
          "type": "uint256"
        }
      ],
      "name": "RewardsClaimed",
      "type": "event"
    },
    {
      "anonymous": false,
      "inputs": [
        {
          "indexed": true,
          "internalType": "address",
          "name": "user",
          "type": "address"
        },
        {
          "indexed": true,
          "internalType": "uint256",
          "name": "tokenId",
          "type": "uint256"
        },
        {
          "indexed": false,
          "internalType": "uint256",
          "name": "miningPower",
          "type": "uint256"
        }
      ],
      "name": "Staked",
      "type": "event"
    },
    {
      "anonymous": false,
      "inputs": [
        {
          "indexed": false,
          "internalType": "address",
          "name": "account",
          "type": "address"
        }
      ],
      "name": "Unpaused",
      "type": "event"
    },
    {
      "anonymous": false,
      "inputs": [
        {
          "indexed": true,
          "internalType": "address",
          "name": "user",
          "type": "address"
        },
        {
          "indexed": true,
          "internalType": "uint256",
          "name": "tokenId",
          "type": "uint256"
        }
      ],
      "name": "Unstaked",
      "type": "event"
    },
    {
      "inputs": [],
      "name": "MAX_CLAIM_PERIOD",
      "outputs": [
        {
          "internalType": "uint256",
          "name": "",
          "type": "uint256"
        }
      ],
      "stateMutability": "view",
      "type": "function"
    },
    {
      "inputs": [],
      "name": "SECONDS_PER_DAY",
      "outputs": [
        {
          "internalType": "uint256",
          "name": "",
          "type": "uint256"
        }
      ],
      "stateMutability": "view",
      "type": "function"
    },
    {
      "inputs": [],
      "name": "YEAR_1_DAILY",
      "outputs": [
        {
          "internalType": "uint256",
          "name": "",
          "type": "uint256"
        }
      ],
      "stateMutability": "view",
      "type": "function"
    },
    {
      "inputs": [],
      "name": "YEAR_2_DAILY",
      "outputs": [
        {
          "internalType": "uint256",
          "name": "",
          "type": "uint256"
        }
      ],
      "stateMutability": "view",
      "type": "function"
    },
    {
      "inputs": [],
      "name": "YEAR_3_DAILY",
      "outputs": [
        {
          "internalType": "uint256",
          "name": "",
          "type": "uint256"
        }
      ],
      "stateMutability": "view",
      "type": "function"
    },
    {
      "inputs": [],
      "name": "YEAR_4_DAILY",
      "outputs": [
        {
          "internalType": "uint256",
          "name": "",
          "type": "uint256"
        }
      ],
      "stateMutability": "view",
      "type": "function"
    },
    {
      "inputs": [],
      "name": "YEAR_IN_SECONDS",
      "outputs": [
        {
          "internalType": "uint256",
          "name": "",
          "type": "uint256"
        }
      ],
      "stateMutability": "view",
      "type": "function"
    },
    {
      "inputs": [
        {
          "internalType": "address",
          "name": "user",
          "type": "address"
        },
        {
          "internalType": "uint256",
          "name": "stakeIndex",
          "type": "uint256"
        }
      ],
      "name": "calculateRewards",
      "outputs": [
        {
          "internalType": "uint256",
          "name": "",
          "type": "uint256"
        }
      ],
      "stateMutability": "view",
      "type": "function"
    },
    {
      "inputs": [],
      "name": "claimRewards",
      "outputs": [],
      "stateMutability": "nonpayable",
      "type": "function"
    },
    {
      "inputs": [],
      "name": "emissionStartTime",
      "outputs": [
        {
          "internalType": "uint256",
          "name": "",
          "type": "uint256"
        }
      ],
      "stateMutability": "view",
      "type": "function"
    },
    {
      "inputs": [],
      "name": "emissionsStarted",
      "outputs": [
        {
          "internalType": "bool",
          "name": "",
          "type": "bool"
        }
      ],
      "stateMutability": "view",
      "type": "function"
    },
    {
      "inputs": [],
      "name": "fairMiner",
      "outputs": [
        {
          "internalType": "contract FAIRMiner",
          "name": "",
          "type": "address"
        }
      ],
      "stateMutability": "view",
      "type": "function"
    },
    {
      "inputs": [],
      "name": "fairToken",
      "outputs": [
        {
          "internalType": "contract IERC20",
          "name": "",
          "type": "address"
        }
      ],
      "stateMutability": "view",
      "type": "function"
    },
    {
      "inputs": [
        {
          "internalType": "uint256",
          "name": "timeElapsed",
          "type": "uint256"
        }
      ],
      "name": "getDailyEmission",
      "outputs": [
        {
          "internalType": "uint256",
          "name": "",
          "type": "uint256"
        }
      ],
      "stateMutability": "pure",
      "type": "function"
    },
    {
      "inputs": [
        {
          "internalType": "address",
          "name": "user",
          "type": "address"
        }
      ],
      "name": "getPendingRewards",
      "outputs": [
        {
          "internalType": "uint256",
          "name": "",
          "type": "uint256"
        }
      ],
      "stateMutability": "view",
      "type": "function"
    },
    {
      "inputs": [],
      "name": "getStakingStats",
      "outputs": [
        {
          "internalType": "uint256",
          "name": "totalPower",
          "type": "uint256"
        },
        {
          "internalType": "uint256",
          "name": "totalClaimed",
          "type": "uint256"
        },
        {
          "internalType": "uint256",
          "name": "currentDailyEmission",
          "type": "uint256"
        },
        {
          "internalType": "bool",
          "name": "started",
          "type": "bool"
        }
      ],
      "stateMutability": "view",
      "type": "function"
    },
    {
      "inputs": [
        {
          "internalType": "address",
          "name": "user",
          "type": "address"
        }
      ],
      "name": "getUserStakes",
      "outputs": [
        {
          "components": [
            {
              "internalType": "uint256",
              "name": "tokenId",
              "type": "uint256"
            },
            {
              "internalType": "uint256",
              "name": "miningPower",
              "type": "uint256"
            },
            {
              "internalType": "uint256",
              "name": "stakedAt",
              "type": "uint256"
            },
            {
              "internalType": "uint256",
              "name": "lastClaimTime",
              "type": "uint256"
            },
            {
              "internalType": "uint256",
              "name": "accumulatedRewards",
              "type": "uint256"
            }
          ],
          "internalType": "struct MiningStaking.StakeInfo[]",
          "name": "",
          "type": "tuple[]"
        }
      ],
      "stateMutability": "view",
      "type": "function"
    },
    {
      "inputs": [
        {
          "internalType": "uint256",
          "name": "startOffset",
          "type": "uint256"
        },
        {
          "internalType": "uint256",
          "name": "endOffset",
          "type": "uint256"
        }
      ],
      "name": "getWeightedAverageEmission",
      "outputs": [
        {
          "internalType": "uint256",
          "name": "",
          "type": "uint256"
        }
      ],
      "stateMutability": "pure",
      "type": "function"
    },
    {
      "inputs": [
        {
          "internalType": "address",
          "name": "",
          "type": "address"
        },
        {
          "internalType": "address",
          "name": "",
          "type": "address"
        },
        {
          "internalType": "uint256",
          "name": "",
          "type": "uint256"
        },
        {
          "internalType": "bytes",
          "name": "",
          "type": "bytes"
        }
      ],
      "name": "onERC721Received",
      "outputs": [
        {
          "internalType": "bytes4",
          "name": "",
          "type": "bytes4"
        }
      ],
      "stateMutability": "pure",
      "type": "function"
    },
    {
      "inputs": [],
      "name": "owner",
      "outputs": [
        {
          "internalType": "address",
          "name": "",
          "type": "address"
        }
      ],
      "stateMutability": "view",
      "type": "function"
    },
    {
      "inputs": [],
      "name": "pause",
      "outputs": [],
      "stateMutability": "nonpayable",
      "type": "function"
    },
    {
      "inputs": [],
      "name": "paused",
      "outputs": [
        {
          "internalType": "bool",
          "name": "",
          "type": "bool"
        }
      ],
      "stateMutability": "view",
      "type": "function"
    },
    {
      "inputs": [],
      "name": "renounceOwnership",
      "outputs": [],
      "stateMutability": "nonpayable",
      "type": "function"
    },
    {
      "inputs": [
        {
          "internalType": "uint256",
          "name": "tokenId",
          "type": "uint256"
        }
      ],
      "name": "stake",
      "outputs": [],
      "stateMutability": "nonpayable",
      "type": "function"
    },
    {
      "inputs": [
        {
          "internalType": "uint256[]",
          "name": "tokenIds",
          "type": "uint256[]"
        }
      ],
      "name": "stakeMultiple",
      "outputs": [],
      "stateMutability": "nonpayable",
      "type": "function"
    },
    {
      "inputs": [
        {
          "internalType": "uint256",
          "name": "",
          "type": "uint256"
        }
      ],
      "name": "stakedTokenIndex",
      "outputs": [
        {
          "internalType": "uint256",
          "name": "",
          "type": "uint256"
        }
      ],
      "stateMutability": "view",
      "type": "function"
    },
    {
      "inputs": [
        {
          "internalType": "uint256",
          "name": "",
          "type": "uint256"
        }
      ],
      "name": "stakedTokenOwner",
      "outputs": [
        {
          "internalType": "address",
          "name": "",
          "type": "address"
        }
      ],
      "stateMutability": "view",
      "type": "function"
    },
    {
      "inputs": [],
      "name": "startEmissions",
      "outputs": [],
      "stateMutability": "nonpayable",
      "type": "function"
    },
    {
      "inputs": [],
      "name": "totalRewardsClaimed",
      "outputs": [
        {
          "internalType": "uint256",
          "name": "",
          "type": "uint256"
        }
      ],
      "stateMutability": "view",
      "type": "function"
    },
    {
      "inputs": [],
      "name": "totalStakedPower",
      "outputs": [
        {
          "internalType": "uint256",
          "name": "",
          "type": "uint256"
        }
      ],
      "stateMutability": "view",
      "type": "function"
    },
    {
      "inputs": [
        {
          "internalType": "address",
          "name": "newOwner",
          "type": "address"
        }
      ],
      "name": "transferOwnership",
      "outputs": [],
      "stateMutability": "nonpayable",
      "type": "function"
    },
    {
      "inputs": [],
      "name": "unpause",
      "outputs": [],
      "stateMutability": "nonpayable",
      "type": "function"
    },
    {
      "inputs": [
        {
          "internalType": "uint256",
          "name": "tokenId",
          "type": "uint256"
        }
      ],
      "name": "unstake",
      "outputs": [],
      "stateMutability": "nonpayable",
      "type": "function"
    },
    {
      "inputs": [
        {
          "internalType": "address",
          "name": "",
          "type": "address"
        },
        {
          "internalType": "uint256",
          "name": "",
          "type": "uint256"
        }
      ],
      "name": "userStakes",
      "outputs": [
        {
          "internalType": "uint256",
          "name": "tokenId",
          "type": "uint256"
        },
        {
          "internalType": "uint256",
          "name": "miningPower",
          "type": "uint256"
        },
        {
          "internalType": "uint256",
          "name": "stakedAt",
          "type": "uint256"
        },
        {
          "internalType": "uint256",
          "name": "lastClaimTime",
          "type": "uint256"
        },
        {
          "internalType": "uint256",
          "name": "accumulatedRewards",
          "type": "uint256"
        }
      ],
      "stateMutability": "view",
      "type": "function"
    }
  ],
  "bytecode": "0x60c06040523480156200001157600080fd5b50604051620022c4380380620022c48339810160408190526200003491620001a1565b33806200005c57604051631e4fbdf760e01b8152600060048201526024015b60405180910390fd5b620000678162000134565b50600180556001600160a01b038216620000c45760405162461bcd60e51b815260206004820152601560248201527f496e76616c696420746f6b656e20616464726573730000000000000000000000604482015260640162000053565b6001600160a01b0381166200011c5760405162461bcd60e51b815260206004820152601560248201527f496e76616c6964206d696e657220616464726573730000000000000000000000604482015260640162000053565b6001600160a01b039182166080521660a052620001d9565b600080546001600160a01b038381166001600160a01b0319831681178455604051919092169283917f8be0079c531659141344cd1fd0a4f28419497f9722a3daafe3b4186f6b6457e09190a35050565b80516001600160a01b03811681146200019c57600080fd5b919050565b60008060408385031215620001b557600080fd5b620001c08362000184565b9150620001d06020840162000184565b90509250929050565b60805160a0516120866200023e60003960008181610257015281816109ac0152818161108b015281816111ad0152818161124501528181611484015281816115c801526116600152600081816102d2015281816106be0152610b7301526120866000f3fe608060405234801561001057600080fd5b50600436106102065760003560e01c80638da5cb5b1161011a578063b5d5b5fa116100ad578063d87584bb1161007c578063d87584bb146104ae578063e32a3b52146104c1578063e4c33227146104ca578063f2fde38b146104db578063f6ed2017146104ee57600080fd5b8063b5d5b5fa14610425578063b7ea6ea014610460578063beb8314c14610471578063c1dd60841461048457600080fd5b8063a8711fc9116100e9578063a8711fc9146103d8578063a8f15c5a146103e9578063a9c6955314610409578063b55e511d1461041c57600080fd5b80638da5cb5b1461039857806392018b54146103a9578063a34b0f76146103bc578063a694fc3a146103c557600080fd5b806357f978151161019d57806374f0314f1161016c57806374f0314f146103355780637847ea531461033f5780637effd79514610347578063842e2981146103705780638456cb591461039057600080fd5b806357f97815146102f45780635adf0021146103055780635c975abb14610322578063715018a61461032d57600080fd5b806330568c8c116101d957806330568c8c146102a4578063372500ab146102bd5780633f4ba83a146102c55780635202581d146102cd57600080fd5b8063150b7a021461020b5780631b02f845146102485780631df38139146102525780632e17de7814610291575b600080fd5b61022a610219366004611cd6565b630a85bd0160e11b95945050505050565b6040516001600160e01b031990911681526020015b60405180910390f35b610250610501565b005b6102797f000000000000000000000000000000000000000000000000000000000000000081565b6040516001600160a01b03909116815260200161023f565b61025061029f366004611d75565b6105eb565b6102af6301e1338081565b60405190815260200161023f565b610250610a4d565b610250610c7e565b6102797f000000000000000000000000000000000000000000000000000000000000000081565b6102af69152d02c7e14af680000081565b6004546103129060ff1681565b604051901515815260200161023f565b60025460ff16610312565b610250610c8e565b6102af6201518081565b6102af610ca0565b610279610355366004611d75565b6006602052600090815260409020546001600160a01b031681565b61038361037e366004611d8e565b610cb2565b60405161023f9190611db2565b610250610d59565b6000546001600160a01b0316610279565b6102af6103b7366004611e20565b610d69565b6102af60095481565b6102506103d3366004611d75565b611011565b6102af691fc3842bd1f071c0000081565b6102af6103f7366004611d75565b60076020526000908152604090205481565b610250610417366004611e42565b6113a7565b6102af60035481565b610438610433366004611eb7565b6117db565b604080519586526020860194909452928401919091526060830152608082015260a00161023f565b6102af6934f086f3b33b6840000081565b6102af61047f366004611eb7565b611829565b61048c6119a3565b604080519485526020850193909352918301521515606082015260800161023f565b6102af6104bc366004611d75565b6119f3565b6102af60085481565b6102af690a968163f0a57b40000081565b6102506104e9366004611d8e565b611aba565b6102af6104fc366004611d8e565b611af5565b610509611b49565b60045460ff16156105535760405162461bcd60e51b815260206004820152600f60248201526e105b1c9958591e481cdd185c9d1959608a1b60448201526064015b60405180910390fd5b60006008541161059c5760405162461bcd60e51b8152602060048201526014602482015273139bc81b5a5b995c9cc81cdd185ad959081e595d60621b604482015260640161054a565b4260038190556004805460ff191660011790556040517f4aeba418988fbec10752293c58bb71a0dd98628ca7bcfa5d88a5ecaa77081d5a916105e19190815260200190565b60405180910390a1565b6105f3611b76565b6000818152600660205260409020546001600160a01b0316331461064d5760405162461bcd60e51b81526020600482015260116024820152704e6f74207374616b656420627920796f7560781b604482015260640161054a565b6000818152600760209081526040808320543384526005909252822080549192918390811061067e5761067e611ee3565b90600052602060002090600502019050600061069a3384611829565b905080156107c55760405163a9059cbb60e01b8152336004820152602481018290527f00000000000000000000000000000000000000000000000000000000000000006001600160a01b03169063a9059cbb906044016020604051808303816000875af115801561070f573d6000803e3d6000fd5b505050506040513d601f19601f820116820180604052508101906107339190611ef9565b6107785760405162461bcd60e51b815260206004820152601660248201527514995dd85c99081d1c985b9cd9995c8819985a5b195960521b604482015260640161054a565b806009600082825461078a9190611f31565b909155505060405181815233907ffc30cddea38e2bf4d6ea7d3f9ed3b6ad7f176419f4963bd81318067a4aee73fe9060200160405180910390a25b8160010154600860008282546107db9190611f44565b9091555050336000908152600560205260408120546107fc90600190611f44565b905080841461090d5733600090815260056020526040902080548290811061082657610826611ee3565b906000526020600020906005020160056000336001600160a01b03166001600160a01b03168152602001908152602001600020858154811061086a5761086a611ee3565b90600052602060002090600502016000820154816000015560018201548160010155600282015481600201556003820154816003015560048201548160040155905050836007600060056000336001600160a01b03166001600160a01b0316815260200190815260200160002087815481106108e8576108e8611ee3565b9060005260206000209060050201600001548152602001908152602001600020819055505b33600090815260056020526040902080548061092b5761092b611f57565b600082815260208082206005600019949094019384020182815560018101839055600281018390556003810183905560049081018390559290935587815260068352604080822080546001600160a01b03191690556007909352828120559051632142170760e11b81523091810191909152336024820152604481018690527f00000000000000000000000000000000000000000000000000000000000000006001600160a01b0316906342842e0e90606401600060405180830381600087803b1580156109f857600080fd5b505af1158015610a0c573d6000803e3d6000fd5b50506040518792503391507f0f5bb82176feb1b5e747e28471aa92156a04d9f3ab9f45f28e2d704232b93f7590600090a350505050610a4a60018055565b50565b610a55611b76565b610a5d611ba0565b6000805b33600090815260056020526040902054811015610b10576000610a843383611829565b9050610a908184611f31565b3360009081526005602052604090208054919450429184908110610ab657610ab6611ee3565b600091825260208083206005928302016003019390935533825290915260408120805484908110610ae957610ae9611ee3565b60009182526020909120600460059092020101555080610b0881611f6d565b915050610a61565b5060008111610b575760405162461bcd60e51b81526020600482015260136024820152724e6f207265776172647320746f20636c61696d60681b604482015260640161054a565b60405163a9059cbb60e01b8152336004820152602481018290527f00000000000000000000000000000000000000000000000000000000000000006001600160a01b03169063a9059cbb906044016020604051808303816000875af1158015610bc4573d6000803e3d6000fd5b505050506040513d601f19601f82011682018060405250810190610be89190611ef9565b610c265760405162461bcd60e51b815260206004820152600f60248201526e151c985b9cd9995c8819985a5b1959608a1b604482015260640161054a565b8060096000828254610c389190611f31565b909155505060405181815233907ffc30cddea38e2bf4d6ea7d3f9ed3b6ad7f176419f4963bd81318067a4aee73fe9060200160405180910390a250610c7c60018055565b565b610c86611b49565b610c7c611bc4565b610c96611b49565b610c7c6000611c11565b610caf6201518061016d611f86565b81565b6001600160a01b0381166000908152600560209081526040808320805482518185028101850190935280835260609492939192909184015b82821015610d4e57838290600052602060002090600502016040518060a00160405290816000820154815260200160018201548152602001600282015481526020016003820154815260200160048201548152505081526020019060010190610cea565b505050509050919050565b610d61611b49565b610c7c611c61565b600080610d7b6201518061016d611f86565b90506000610d8e6201518061016d611f86565b610d99906002611f86565b90506000610dac6201518061016d611f86565b610db7906003611f86565b90506000610dca6201518061016d611f86565b610dd5906004611f86565b9050838611610df457690a968163f0a57b40000094505050505061100b565b808710610e0857600094505050505061100b565b818710610e25576934f086f3b33b6840000094505050505061100b565b828710610e425769152d02c7e14af680000094505050505061100b565b838710610e5f57691fc3842bd1f071c0000094505050505061100b565b6000610e6b8888611f44565b9050600085891015610eb757600089878a10610e875787610e89565b895b610e939190611f44565b9050610ea981690a968163f0a57b400000611f86565b610eb39083611f31565b9150505b8489108015610ec557508588115b15610f22576000868a10610ed95789610edb565b865b90506000868a10610eec5786610eee565b895b90506000610efc8383611f44565b9050610f1281691fc3842bd1f071c00000611f86565b610f1c9085611f31565b93505050505b8389108015610f3057508488115b15610f8d576000858a10610f445789610f46565b855b90506000858a10610f575785610f59565b895b90506000610f678383611f44565b9050610f7d8169152d02c7e14af6800000611f86565b610f879085611f31565b93505050505b8289108015610f9b57508388115b15610ff8576000848a10610faf5789610fb1565b845b90506000848a10610fc25784610fc4565b895b90506000610fd28383611f44565b9050610fe8816934f086f3b33b68400000611f86565b610ff29085611f31565b93505050505b6110028282611f9d565b96505050505050505b92915050565b611019611b76565b611021611ba0565b60045460ff1661106b5760405162461bcd60e51b8152602060048201526015602482015274115b5a5cdcda5bdb9cc81b9bdd081cdd185c9d1959605a1b604482015260640161054a565b6040516331a9108f60e11b81526004810182905233906001600160a01b037f00000000000000000000000000000000000000000000000000000000000000001690636352211e90602401602060405180830381865afa1580156110d2573d6000803e3d6000fd5b505050506040513d601f19601f820116820180604052508101906110f69190611fbf565b6001600160a01b03161461113e5760405162461bcd60e51b815260206004820152600f60248201526e2737ba103a37b5b2b71037bbb732b960891b604482015260640161054a565b6000818152600660205260409020546001600160a01b0316156111945760405162461bcd60e51b815260206004820152600e60248201526d105b1c9958591e481cdd185ad95960921b604482015260640161054a565b60405163f538f7f360e01b8152600481018290526000907f00000000000000000000000000000000000000000000000000000000000000006001600160a01b03169063f538f7f390602401606060405180830381865afa1580156111fc573d6000803e3d6000fd5b505050506040513d601f19601f820116820180604052508101906112209190611fdc565b604051632142170760e11b8152336004820152306024820152604481018490529091507f00000000000000000000000000000000000000000000000000000000000000006001600160a01b0316906342842e0e90606401600060405180830381600087803b15801561129157600080fd5b505af11580156112a5573d6000803e3d6000fd5b50503360008181526005602081815260408084208054825160a0810184528b81528a850180518287019081524283870181815260608501918252608085018b815260018088018955978c52898c2095519a8702909501998a5591519589019590955551600288015592516003870155516004909501949094558985526006835281852080546001600160a01b031916909617909555600790915282208190559151600880549395509093509161135c908490611f31565b9091555050602082810151604051908152849133917f1449c6dd7851abc30abf37f57715f492010519147cc2652fbc38202c18a6ee90910160405180910390a35050610a4a60018055565b6113af611b76565b6113b7611ba0565b60045460ff166114015760405162461bcd60e51b8152602060048201526015602482015274115b5a5cdcda5bdb9cc81b9bdd081cdd185c9d1959605a1b604482015260640161054a565b8015801590611411575060148111155b6114505760405162461bcd60e51b815260206004820152601060248201526f496e76616c6964207175616e7469747960801b604482015260640161054a565b60005b818110156117cd57600083838381811061146f5761146f611ee3565b905060200201359050336001600160a01b03167f00000000000000000000000000000000000000000000000000000000000000006001600160a01b0316636352211e836040518263ffffffff1660e01b81526004016114d091815260200190565b602060405180830381865afa1580156114ed573d6000803e3d6000fd5b505050506040513d601f19601f820116820180604052508101906115119190611fbf565b6001600160a01b0316146115595760405162461bcd60e51b815260206004820152600f60248201526e2737ba103a37b5b2b71037bbb732b960891b604482015260640161054a565b6000818152600660205260409020546001600160a01b0316156115af5760405162461bcd60e51b815260206004820152600e60248201526d105b1c9958591e481cdd185ad95960921b604482015260640161054a565b60405163f538f7f360e01b8152600481018290526000907f00000000000000000000000000000000000000000000000000000000000000006001600160a01b03169063f538f7f390602401606060405180830381865afa158015611617573d6000803e3d6000fd5b505050506040513d601f19601f8201168201806040525081019061163b9190611fdc565b604051632142170760e11b8152336004820152306024820152604481018490529091507f00000000000000000000000000000000000000000000000000000000000000006001600160a01b0316906342842e0e90606401600060405180830381600087803b1580156116ac57600080fd5b505af11580156116c0573d6000803e3d6000fd5b50503360008181526005602081815260408084208054825160a0810184528b81528a850180518287019081524283870181815260608501918252608085018b815260018088018955978c52898c2095519a8702909501998a5591519589019590955551600288015592516003870155516004909501949094558985526006835281852080546001600160a01b0319169096179095556007909152822081905591516008805493955090935091611777908490611f31565b9091555050602082810151604051908152849133917f1449c6dd7851abc30abf37f57715f492010519147cc2652fbc38202c18a6ee90910160405180910390a350505080806117c590611f6d565b915050611453565b506117d760018055565b5050565b600560205281600052604060002081815481106117f757600080fd5b600091825260209091206005909102018054600182015460028301546003840154600490940154929550909350919085565b60045460009060ff1661183e5750600061100b565b6001600160a01b03831660009081526005602052604090205482106118655750600061100b565b6008546000036118775750600061100b565b6001600160a01b03831660009081526005602052604081208054849081106118a1576118a1611ee3565b90600052602060002090600502016040518060a001604052908160008201548152602001600182015481526020016002820154815260200160038201548152602001600482015481525050905060008160600151426119009190611f44565b905080600003611916575060800151905061100b565b6301e1338081111561192957506301e133805b6000600354836060015161193d9190611f44565b9050600061194b8383611f31565b905060006119598383610d69565b905060006008546201518061196e9190611f86565b602087015161197d8785611f86565b6119879190611f86565b6119919190611f9d565b90508560800151816110029190611f31565b600454600090819081908190819060ff166119bf5760006119cc565b6003546119cc9042611f44565b90506008546009546119dd836119f3565b6004549298919750955060ff9091169350915050565b6000611a046201518061016d611f86565b821015611a1c5750690a968163f0a57b400000919050565b611a2b6201518061016d611f86565b611a36906002611f86565b821015611a4e5750691fc3842bd1f071c00000919050565b611a5d6201518061016d611f86565b611a68906003611f86565b821015611a80575069152d02c7e14af6800000919050565b611a8f6201518061016d611f86565b611a9a906004611f86565b821015611ab257506934f086f3b33b68400000919050565b506000919050565b611ac2611b49565b6001600160a01b038116611aec57604051631e4fbdf760e01b81526000600482015260240161054a565b610a4a81611c11565b600080805b6001600160a01b038416600090815260056020526040902054811015611b4257611b248482611829565b611b2e9083611f31565b915080611b3a81611f6d565b915050611afa565b5092915050565b6000546001600160a01b03163314610c7c5760405163118cdaa760e01b815233600482015260240161054a565b600260015403611b9957604051633ee5aeb560e01b815260040160405180910390fd5b6002600155565b60025460ff1615610c7c5760405163d93c066560e01b815260040160405180910390fd5b611bcc611c9e565b6002805460ff191690557f5db9ee0a495bf2e6ff9c91a7834c1ba4fdd244a5e8aa4e537bd38aeae4b073aa335b6040516001600160a01b0390911681526020016105e1565b600080546001600160a01b038381166001600160a01b0319831681178455604051919092169283917f8be0079c531659141344cd1fd0a4f28419497f9722a3daafe3b4186f6b6457e09190a35050565b611c69611ba0565b6002805460ff191660011790557f62e78cea01bee320cd4e420270b5ea74000d11b0c9f74754ebdbfc544b05a258611bf93390565b60025460ff16610c7c57604051638dfc202b60e01b815260040160405180910390fd5b6001600160a01b0381168114610a4a57600080fd5b600080600080600060808688031215611cee57600080fd5b8535611cf981611cc1565b94506020860135611d0981611cc1565b935060408601359250606086013567ffffffffffffffff80821115611d2d57600080fd5b818801915088601f830112611d4157600080fd5b813581811115611d5057600080fd5b896020828501011115611d6257600080fd5b9699959850939650602001949392505050565b600060208284031215611d8757600080fd5b5035919050565b600060208284031215611da057600080fd5b8135611dab81611cc1565b9392505050565b602080825282518282018190526000919060409081850190868401855b82811015611e135781518051855286810151878601528581015186860152606080820151908601526080908101519085015260a09093019290850190600101611dcf565b5091979650505050505050565b60008060408385031215611e3357600080fd5b50508035926020909101359150565b60008060208385031215611e5557600080fd5b823567ffffffffffffffff80821115611e6d57600080fd5b818501915085601f830112611e8157600080fd5b813581811115611e9057600080fd5b8660208260051b8501011115611ea557600080fd5b60209290920196919550909350505050565b60008060408385031215611eca57600080fd5b8235611ed581611cc1565b946020939093013593505050565b634e487b7160e01b600052603260045260246000fd5b600060208284031215611f0b57600080fd5b81518015158114611dab57600080fd5b634e487b7160e01b600052601160045260246000fd5b8082018082111561100b5761100b611f1b565b8181038181111561100b5761100b611f1b565b634e487b7160e01b600052603160045260246000fd5b600060018201611f7f57611f7f611f1b565b5060010190565b808202811582820484141761100b5761100b611f1b565b600082611fba57634e487b7160e01b600052601260045260246000fd5b500490565b600060208284031215611fd157600080fd5b8151611dab81611cc1565b600060608284031215611fee57600080fd5b6040516060810181811067ffffffffffffffff8211171561201f57634e487b7160e01b600052604160045260246000fd5b60405282516003811061203157600080fd5b815260208381015190820152604092830151928101929092525091905056fea26469706673582212204493136fa195bd64a34cfab4082940c3fec9063cad2b75cb43adb5d888f8b98664736f6c63430008140033",
  "linkReferences": {},
  "deployedLinkReferences": {}
}