{
  "_format": "hh-sol-artifact-1",
  "contractName": "MiningStaking",
  "sourceName": "contracts/MiningStaking.sol",
  "abi": [
    {
      "inputs": [
        {
          "internalType": "address",
          "name": "_fairToken",
          "type": "address"
        },
        {
          "internalType": "address",
          "name": "_fairMiner",
          "type": "address"
        }
      ],
      "stateMutability": "nonpayable",
      "type": "constructor"
    },
    {
      "inputs": [
        {
          "internalType": "address",
          "name": "owner",
          "type": "address"
        }
      ],
      "name": "OwnableInvalidOwner",
      "type": "error"
    },
    {
      "inputs": [
        {
          "internalType": "address",
          "name": "account",
          "type": "address"
        }
      ],
      "name": "OwnableUnauthorizedAccount",
      "type": "error"
    },
    {
      "inputs": [],
      "name": "ReentrancyGuardReentrantCall",
      "type": "error"
    },
    {
      "anonymous": false,
      "inputs": [
        {
          "indexed": false,
          "internalType": "uint256",
          "name": "startTime",
          "type": "uint256"
        }
      ],
      "name": "EmissionStarted",
      "type": "event"
    },
    {
      "anonymous": false,
      "inputs": [
        {
          "indexed": true,
          "internalType": "address",
          "name": "previousOwner",
          "type": "address"
        },
        {
          "indexed": true,
          "internalType": "address",
          "name": "newOwner",
          "type": "address"
        }
      ],
      "name": "OwnershipTransferred",
      "type": "event"
    },
    {
      "anonymous": false,
      "inputs": [
        {
          "indexed": true,
          "internalType": "address",
          "name": "user",
          "type": "address"
        },
        {
          "indexed": false,
          "internalType": "uint256",
          "name": "amount",
          "type": "uint256"
        }
      ],
      "name": "RewardsClaimed",
      "type": "event"
    },
    {
      "anonymous": false,
      "inputs": [
        {
          "indexed": true,
          "internalType": "address",
          "name": "user",
          "type": "address"
        },
        {
          "indexed": true,
          "internalType": "uint256",
          "name": "tokenId",
          "type": "uint256"
        },
        {
          "indexed": false,
          "internalType": "uint256",
          "name": "miningPower",
          "type": "uint256"
        }
      ],
      "name": "Staked",
      "type": "event"
    },
    {
      "anonymous": false,
      "inputs": [
        {
          "indexed": true,
          "internalType": "address",
          "name": "user",
          "type": "address"
        },
        {
          "indexed": true,
          "internalType": "uint256",
          "name": "tokenId",
          "type": "uint256"
        }
      ],
      "name": "Unstaked",
      "type": "event"
    },
    {
      "inputs": [],
      "name": "SECONDS_PER_DAY",
      "outputs": [
        {
          "internalType": "uint256",
          "name": "",
          "type": "uint256"
        }
      ],
      "stateMutability": "view",
      "type": "function"
    },
    {
      "inputs": [],
      "name": "YEAR_1_DAILY",
      "outputs": [
        {
          "internalType": "uint256",
          "name": "",
          "type": "uint256"
        }
      ],
      "stateMutability": "view",
      "type": "function"
    },
    {
      "inputs": [],
      "name": "YEAR_2_DAILY",
      "outputs": [
        {
          "internalType": "uint256",
          "name": "",
          "type": "uint256"
        }
      ],
      "stateMutability": "view",
      "type": "function"
    },
    {
      "inputs": [],
      "name": "YEAR_3_DAILY",
      "outputs": [
        {
          "internalType": "uint256",
          "name": "",
          "type": "uint256"
        }
      ],
      "stateMutability": "view",
      "type": "function"
    },
    {
      "inputs": [],
      "name": "YEAR_4_DAILY",
      "outputs": [
        {
          "internalType": "uint256",
          "name": "",
          "type": "uint256"
        }
      ],
      "stateMutability": "view",
      "type": "function"
    },
    {
      "inputs": [],
      "name": "YEAR_IN_SECONDS",
      "outputs": [
        {
          "internalType": "uint256",
          "name": "",
          "type": "uint256"
        }
      ],
      "stateMutability": "view",
      "type": "function"
    },
    {
      "inputs": [
        {
          "internalType": "address",
          "name": "user",
          "type": "address"
        },
        {
          "internalType": "uint256",
          "name": "stakeIndex",
          "type": "uint256"
        }
      ],
      "name": "calculateRewards",
      "outputs": [
        {
          "internalType": "uint256",
          "name": "",
          "type": "uint256"
        }
      ],
      "stateMutability": "view",
      "type": "function"
    },
    {
      "inputs": [],
      "name": "claimRewards",
      "outputs": [],
      "stateMutability": "nonpayable",
      "type": "function"
    },
    {
      "inputs": [],
      "name": "emissionStartTime",
      "outputs": [
        {
          "internalType": "uint256",
          "name": "",
          "type": "uint256"
        }
      ],
      "stateMutability": "view",
      "type": "function"
    },
    {
      "inputs": [],
      "name": "fairMiner",
      "outputs": [
        {
          "internalType": "contract FAIRMiner",
          "name": "",
          "type": "address"
        }
      ],
      "stateMutability": "view",
      "type": "function"
    },
    {
      "inputs": [],
      "name": "fairToken",
      "outputs": [
        {
          "internalType": "contract IERC20",
          "name": "",
          "type": "address"
        }
      ],
      "stateMutability": "view",
      "type": "function"
    },
    {
      "inputs": [
        {
          "internalType": "uint256",
          "name": "timeElapsed",
          "type": "uint256"
        }
      ],
      "name": "getDailyEmission",
      "outputs": [
        {
          "internalType": "uint256",
          "name": "",
          "type": "uint256"
        }
      ],
      "stateMutability": "pure",
      "type": "function"
    },
    {
      "inputs": [
        {
          "internalType": "address",
          "name": "user",
          "type": "address"
        }
      ],
      "name": "getPendingRewards",
      "outputs": [
        {
          "internalType": "uint256",
          "name": "",
          "type": "uint256"
        }
      ],
      "stateMutability": "view",
      "type": "function"
    },
    {
      "inputs": [],
      "name": "getStakingStats",
      "outputs": [
        {
          "internalType": "uint256",
          "name": "totalPower",
          "type": "uint256"
        },
        {
          "internalType": "uint256",
          "name": "totalClaimed",
          "type": "uint256"
        },
        {
          "internalType": "uint256",
          "name": "currentDailyEmission",
          "type": "uint256"
        }
      ],
      "stateMutability": "view",
      "type": "function"
    },
    {
      "inputs": [
        {
          "internalType": "address",
          "name": "user",
          "type": "address"
        }
      ],
      "name": "getUserStakes",
      "outputs": [
        {
          "components": [
            {
              "internalType": "uint256",
              "name": "tokenId",
              "type": "uint256"
            },
            {
              "internalType": "uint256",
              "name": "miningPower",
              "type": "uint256"
            },
            {
              "internalType": "uint256",
              "name": "stakedAt",
              "type": "uint256"
            },
            {
              "internalType": "uint256",
              "name": "lastClaimTime",
              "type": "uint256"
            }
          ],
          "internalType": "struct MiningStaking.StakeInfo[]",
          "name": "",
          "type": "tuple[]"
        }
      ],
      "stateMutability": "view",
      "type": "function"
    },
    {
      "inputs": [
        {
          "internalType": "address",
          "name": "",
          "type": "address"
        },
        {
          "internalType": "address",
          "name": "",
          "type": "address"
        },
        {
          "internalType": "uint256",
          "name": "",
          "type": "uint256"
        },
        {
          "internalType": "bytes",
          "name": "",
          "type": "bytes"
        }
      ],
      "name": "onERC721Received",
      "outputs": [
        {
          "internalType": "bytes4",
          "name": "",
          "type": "bytes4"
        }
      ],
      "stateMutability": "pure",
      "type": "function"
    },
    {
      "inputs": [],
      "name": "owner",
      "outputs": [
        {
          "internalType": "address",
          "name": "",
          "type": "address"
        }
      ],
      "stateMutability": "view",
      "type": "function"
    },
    {
      "inputs": [],
      "name": "renounceOwnership",
      "outputs": [],
      "stateMutability": "nonpayable",
      "type": "function"
    },
    {
      "inputs": [
        {
          "internalType": "uint256",
          "name": "tokenId",
          "type": "uint256"
        }
      ],
      "name": "stake",
      "outputs": [],
      "stateMutability": "nonpayable",
      "type": "function"
    },
    {
      "inputs": [
        {
          "internalType": "uint256[]",
          "name": "tokenIds",
          "type": "uint256[]"
        }
      ],
      "name": "stakeMultiple",
      "outputs": [],
      "stateMutability": "nonpayable",
      "type": "function"
    },
    {
      "inputs": [
        {
          "internalType": "uint256",
          "name": "",
          "type": "uint256"
        }
      ],
      "name": "stakedTokenIndex",
      "outputs": [
        {
          "internalType": "uint256",
          "name": "",
          "type": "uint256"
        }
      ],
      "stateMutability": "view",
      "type": "function"
    },
    {
      "inputs": [
        {
          "internalType": "uint256",
          "name": "",
          "type": "uint256"
        }
      ],
      "name": "stakedTokenOwner",
      "outputs": [
        {
          "internalType": "address",
          "name": "",
          "type": "address"
        }
      ],
      "stateMutability": "view",
      "type": "function"
    },
    {
      "inputs": [],
      "name": "startEmissions",
      "outputs": [],
      "stateMutability": "nonpayable",
      "type": "function"
    },
    {
      "inputs": [],
      "name": "totalRewardsClaimed",
      "outputs": [
        {
          "internalType": "uint256",
          "name": "",
          "type": "uint256"
        }
      ],
      "stateMutability": "view",
      "type": "function"
    },
    {
      "inputs": [],
      "name": "totalStakedPower",
      "outputs": [
        {
          "internalType": "uint256",
          "name": "",
          "type": "uint256"
        }
      ],
      "stateMutability": "view",
      "type": "function"
    },
    {
      "inputs": [
        {
          "internalType": "address",
          "name": "newOwner",
          "type": "address"
        }
      ],
      "name": "transferOwnership",
      "outputs": [],
      "stateMutability": "nonpayable",
      "type": "function"
    },
    {
      "inputs": [
        {
          "internalType": "uint256",
          "name": "tokenId",
          "type": "uint256"
        }
      ],
      "name": "unstake",
      "outputs": [],
      "stateMutability": "nonpayable",
      "type": "function"
    },
    {
      "inputs": [
        {
          "internalType": "address",
          "name": "",
          "type": "address"
        },
        {
          "internalType": "uint256",
          "name": "",
          "type": "uint256"
        }
      ],
      "name": "userStakes",
      "outputs": [
        {
          "internalType": "uint256",
          "name": "tokenId",
          "type": "uint256"
        },
        {
          "internalType": "uint256",
          "name": "miningPower",
          "type": "uint256"
        },
        {
          "internalType": "uint256",
          "name": "stakedAt",
          "type": "uint256"
        },
        {
          "internalType": "uint256",
          "name": "lastClaimTime",
          "type": "uint256"
        }
      ],
      "stateMutability": "view",
      "type": "function"
    }
  ],
  "bytecode": "0x60c06040523480156200001157600080fd5b5060405162001d9738038062001d978339810160408190526200003491620001a1565b33806200005c57604051631e4fbdf760e01b8152600060048201526024015b60405180910390fd5b620000678162000134565b50600180556001600160a01b038216620000c45760405162461bcd60e51b815260206004820152601560248201527f496e76616c696420746f6b656e20616464726573730000000000000000000000604482015260640162000053565b6001600160a01b0381166200011c5760405162461bcd60e51b815260206004820152601560248201527f496e76616c6964206d696e657220616464726573730000000000000000000000604482015260640162000053565b6001600160a01b039182166080521660a052620001d9565b600080546001600160a01b038381166001600160a01b0319831681178455604051919092169283917f8be0079c531659141344cd1fd0a4f28419497f9722a3daafe3b4186f6b6457e09190a35050565b80516001600160a01b03811681146200019c57600080fd5b919050565b60008060408385031215620001b557600080fd5b620001c08362000184565b9150620001d06020840162000184565b90509250929050565b60805160a051611b596200023e60003960008181610215015281816108b301528181610c7501528181610d9701528181610e2f015281816110590152818161119d015261123501526000818161026f015281816105ea0152610a370152611b596000f3fe608060405234801561001057600080fd5b50600436106101c45760003560e01c8063a694fc3a116100f9578063beb8314c11610097578063e32a3b5211610071578063e32a3b521461041a578063e4c3322714610423578063f2fde38b14610434578063f6ed20171461044757600080fd5b8063beb8314c146103d1578063c1dd6084146103e4578063d87584bb1461040757600080fd5b8063a9c69553116100d3578063a9c6955314610371578063b55e511d14610384578063b5d5b5fa1461038d578063b7ea6ea0146103c057600080fd5b8063a694fc3a1461032d578063a8711fc914610340578063a8f15c5a1461035157600080fd5b8063715018a6116101665780637effd795116101405780637effd795146102ca578063842e2981146102f35780638da5cb5b14610313578063a34b0f761461032457600080fd5b8063715018a6146102b057806374f0314f146102b85780637847ea53146102c257600080fd5b80632e17de78116101a25780632e17de781461024f578063372500ab146102625780635202581d1461026a57806357f978151461029157600080fd5b8063150b7a02146101c95780631b02f845146102065780631df3813914610210575b600080fd5b6101e86101d73660046117d5565b630a85bd0160e11b95945050505050565b6040516001600160e01b031990911681526020015b60405180910390f35b61020e61045a565b005b6102377f000000000000000000000000000000000000000000000000000000000000000081565b6040516001600160a01b0390911681526020016101fd565b61020e61025d366004611874565b6104e4565b61020e61094c565b6102377f000000000000000000000000000000000000000000000000000000000000000081565b6102a269152d02c7e14af680000081565b6040519081526020016101fd565b61020e610b42565b6102a26201518081565b6102a2610b54565b6102376102d8366004611874565b6004602052600090815260409020546001600160a01b031681565b61030661030136600461188d565b610b66565b6040516101fd91906118b1565b6000546001600160a01b0316610237565b6102a260075481565b61020e61033b366004611874565b610c03565b6102a2691fc3842bd1f071c0000081565b6102a261035f366004611874565b60056020526000908152604090205481565b61020e61037f366004611915565b610f84565b6102a260025481565b6103a061039b36600461198a565b6113a3565b6040805194855260208501939093529183015260608201526080016101fd565b6102a26934f086f3b33b6840000081565b6102a26103df36600461198a565b6113e9565b6103ec611582565b604080519384526020840192909252908201526060016101fd565b6102a2610415366004611874565b6115c3565b6102a260065481565b6102a2690a968163f0a57b40000081565b61020e61044236600461188d565b61168a565b6102a261045536600461188d565b6116c5565b610462611719565b600254156104a95760405162461bcd60e51b815260206004820152600f60248201526e105b1c9958591e481cdd185c9d1959608a1b60448201526064015b60405180910390fd5b4260028190556040519081527f4aeba418988fbec10752293c58bb71a0dd98628ca7bcfa5d88a5ecaa77081d5a9060200160405180910390a1565b6104ec611746565b6000818152600460205260409020546001600160a01b031633146105465760405162461bcd60e51b81526020600482015260116024820152704e6f74207374616b656420627920796f7560781b60448201526064016104a0565b60008181526005602090815260408083205433845260039092528220805491929183908110610577576105776119b6565b9060005260206000209060040201604051806080016040529081600082015481526020016001820154815260200160028201548152602001600382015481525050905060006105c633846113e9565b905080156106f15760405163a9059cbb60e01b8152336004820152602481018290527f00000000000000000000000000000000000000000000000000000000000000006001600160a01b03169063a9059cbb906044016020604051808303816000875af115801561063b573d6000803e3d6000fd5b505050506040513d601f19601f8201168201806040525081019061065f91906119cc565b6106a45760405162461bcd60e51b815260206004820152601660248201527514995dd85c99081d1c985b9cd9995c8819985a5b195960521b60448201526064016104a0565b80600760008282546106b69190611a04565b909155505060405181815233907ffc30cddea38e2bf4d6ea7d3f9ed3b6ad7f176419f4963bd81318067a4aee73fe9060200160405180910390a25b8160200151600660008282546107079190611a17565b90915550503360009081526003602052604081205461072890600190611a17565b905080841461081557336000908152600360205260409020805482908110610752576107526119b6565b906000526020600020906004020160036000336001600160a01b03166001600160a01b031681526020019081526020016000208581548110610796576107966119b6565b6000918252602080832084546004909302019182556001808501549083015560028085015490830155600393840154918401919091553382529190915260408120805486926005929091849081106107f0576107f06119b6565b9060005260206000209060040201600001548152602001908152602001600020819055505b33600090815260036020526040902080548061083357610833611a2a565b600082815260208082206000199390930160048181029094018381556001810184905560028101849055600301839055909355878152818352604080822080546001600160a01b03191690556005909352828120559051632142170760e11b81523091810191909152336024820152604481018690526001600160a01b037f000000000000000000000000000000000000000000000000000000000000000016906342842e0e90606401600060405180830381600087803b1580156108f757600080fd5b505af115801561090b573d6000803e3d6000fd5b50506040518792503391507f0f5bb82176feb1b5e747e28471aa92156a04d9f3ab9f45f28e2d704232b93f7590600090a35050505061094960018055565b50565b610954611746565b6000805b336000908152600360205260409020548110156109d457600061097b33836113e9565b90506109878184611a04565b33600090815260036020526040902080549194504291849081106109ad576109ad6119b6565b600091825260209091206003600490920201015550806109cc81611a40565b915050610958565b5060008111610a1b5760405162461bcd60e51b81526020600482015260136024820152724e6f207265776172647320746f20636c61696d60681b60448201526064016104a0565b60405163a9059cbb60e01b8152336004820152602481018290527f00000000000000000000000000000000000000000000000000000000000000006001600160a01b03169063a9059cbb906044016020604051808303816000875af1158015610a88573d6000803e3d6000fd5b505050506040513d601f19601f82011682018060405250810190610aac91906119cc565b610aea5760405162461bcd60e51b815260206004820152600f60248201526e151c985b9cd9995c8819985a5b1959608a1b60448201526064016104a0565b8060076000828254610afc9190611a04565b909155505060405181815233907ffc30cddea38e2bf4d6ea7d3f9ed3b6ad7f176419f4963bd81318067a4aee73fe9060200160405180910390a250610b4060018055565b565b610b4a611719565b610b406000611770565b610b636201518061016d611a59565b81565b6001600160a01b0381166000908152600360209081526040808320805482518185028101850190935280835260609492939192909184015b82821015610bf8578382906000526020600020906004020160405180608001604052908160008201548152602001600182015481526020016002820154815260200160038201548152505081526020019060010190610b9e565b505050509050919050565b610c0b611746565b600060025411610c555760405162461bcd60e51b8152602060048201526015602482015274115b5a5cdcda5bdb9cc81b9bdd081cdd185c9d1959605a1b60448201526064016104a0565b6040516331a9108f60e11b81526004810182905233906001600160a01b037f00000000000000000000000000000000000000000000000000000000000000001690636352211e90602401602060405180830381865afa158015610cbc573d6000803e3d6000fd5b505050506040513d601f19601f82011682018060405250810190610ce09190611a70565b6001600160a01b031614610d285760405162461bcd60e51b815260206004820152600f60248201526e2737ba103a37b5b2b71037bbb732b960891b60448201526064016104a0565b6000818152600460205260409020546001600160a01b031615610d7e5760405162461bcd60e51b815260206004820152600e60248201526d105b1c9958591e481cdd185ad95960921b60448201526064016104a0565b60405163f538f7f360e01b8152600481018290526000907f00000000000000000000000000000000000000000000000000000000000000006001600160a01b03169063f538f7f390602401606060405180830381865afa158015610de6573d6000803e3d6000fd5b505050506040513d601f19601f82011682018060405250810190610e0a9190611a8d565b604051632142170760e11b8152336004820152306024820152604481018490529091507f00000000000000000000000000000000000000000000000000000000000000006001600160a01b0316906342842e0e90606401600060405180830381600087803b158015610e7b57600080fd5b505af1158015610e8f573d6000803e3d6000fd5b5050336000818152600360208181526040808420805482516080810184528b81528a85018051828701908152428387018181526060850191825260018087018855968b52888b209451600480880290960190815592519683019690965594516002820155935193909601929092558a865290835281852080546001600160a01b03191690961790955560059091528220839055516006805493955090935091610f39908490611a04565b9091555050602082810151604051908152849133917f1449c6dd7851abc30abf37f57715f492010519147cc2652fbc38202c18a6ee90910160405180910390a3505061094960018055565b610f8c611746565b600060025411610fd65760405162461bcd60e51b8152602060048201526015602482015274115b5a5cdcda5bdb9cc81b9bdd081cdd185c9d1959605a1b60448201526064016104a0565b8015801590610fe6575060148111155b6110255760405162461bcd60e51b815260206004820152601060248201526f496e76616c6964207175616e7469747960801b60448201526064016104a0565b60005b81811015611395576000838383818110611044576110446119b6565b905060200201359050336001600160a01b03167f00000000000000000000000000000000000000000000000000000000000000006001600160a01b0316636352211e836040518263ffffffff1660e01b81526004016110a591815260200190565b602060405180830381865afa1580156110c2573d6000803e3d6000fd5b505050506040513d601f19601f820116820180604052508101906110e69190611a70565b6001600160a01b03161461112e5760405162461bcd60e51b815260206004820152600f60248201526e2737ba103a37b5b2b71037bbb732b960891b60448201526064016104a0565b6000818152600460205260409020546001600160a01b0316156111845760405162461bcd60e51b815260206004820152600e60248201526d105b1c9958591e481cdd185ad95960921b60448201526064016104a0565b60405163f538f7f360e01b8152600481018290526000907f00000000000000000000000000000000000000000000000000000000000000006001600160a01b03169063f538f7f390602401606060405180830381865afa1580156111ec573d6000803e3d6000fd5b505050506040513d601f19601f820116820180604052508101906112109190611a8d565b604051632142170760e11b8152336004820152306024820152604481018490529091507f00000000000000000000000000000000000000000000000000000000000000006001600160a01b0316906342842e0e90606401600060405180830381600087803b15801561128157600080fd5b505af1158015611295573d6000803e3d6000fd5b5050336000818152600360208181526040808420805482516080810184528b81528a85018051828701908152428387018181526060850191825260018087018855968b52888b209451600480880290960190815592519683019690965594516002820155935193909601929092558a865290835281852080546001600160a01b0319169096179095556005909152822083905551600680549395509093509161133f908490611a04565b9091555050602082810151604051908152849133917f1449c6dd7851abc30abf37f57715f492010519147cc2652fbc38202c18a6ee90910160405180910390a3505050808061138d90611a40565b915050611028565b5061139f60018055565b5050565b600360205281600052604060002081815481106113bf57600080fd5b60009182526020909120600490910201805460018201546002830154600390930154919450925084565b60006002546000036113fd5750600061157c565b6001600160a01b03831660009081526003602052604090205482106114245750600061157c565b6001600160a01b038316600090815260036020526040812080548490811061144e5761144e6119b6565b6000918252602080832060408051608081018252600490940290910180548452600181015492840192909252600282015490830152600301546060820181905290925061149b9042611a17565b90508015806114aa5750600654155b156114ba5760009250505061157c565b60608201516000905b42811015611576576000600254826114db9190611a17565b905060006114e8826115c3565b905060006114f68442611a17565b9050620151808111156115095750620151805b60006006546201518061151c9190611a59565b602089015161152b8486611a59565b6115359190611a59565b61153f9190611b01565b905061154b8187611a04565b95506115578286611a04565b94506201518082101561156d5750505050611576565b505050506114c3565b50925050505b92915050565b6000806000806000600254116115995760006115a6565b6002546115a69042611a17565b90506006546007546115b7836115c3565b93509350935050909192565b60006115d46201518061016d611a59565b8210156115ec5750690a968163f0a57b400000919050565b6115fb6201518061016d611a59565b611606906002611a59565b82101561161e5750691fc3842bd1f071c00000919050565b61162d6201518061016d611a59565b611638906003611a59565b821015611650575069152d02c7e14af6800000919050565b61165f6201518061016d611a59565b61166a906004611a59565b82101561168257506934f086f3b33b68400000919050565b506000919050565b611692611719565b6001600160a01b0381166116bc57604051631e4fbdf760e01b8152600060048201526024016104a0565b61094981611770565b600080805b6001600160a01b038416600090815260036020526040902054811015611712576116f484826113e9565b6116fe9083611a04565b91508061170a81611a40565b9150506116ca565b5092915050565b6000546001600160a01b03163314610b405760405163118cdaa760e01b81523360048201526024016104a0565b60026001540361176957604051633ee5aeb560e01b815260040160405180910390fd5b6002600155565b600080546001600160a01b038381166001600160a01b0319831681178455604051919092169283917f8be0079c531659141344cd1fd0a4f28419497f9722a3daafe3b4186f6b6457e09190a35050565b6001600160a01b038116811461094957600080fd5b6000806000806000608086880312156117ed57600080fd5b85356117f8816117c0565b94506020860135611808816117c0565b935060408601359250606086013567ffffffffffffffff8082111561182c57600080fd5b818801915088601f83011261184057600080fd5b81358181111561184f57600080fd5b89602082850101111561186157600080fd5b9699959850939650602001949392505050565b60006020828403121561188657600080fd5b5035919050565b60006020828403121561189f57600080fd5b81356118aa816117c0565b9392505050565b602080825282518282018190526000919060409081850190868401855b82811015611908578151805185528681015187860152858101518686015260609081015190850152608090930192908501906001016118ce565b5091979650505050505050565b6000806020838503121561192857600080fd5b823567ffffffffffffffff8082111561194057600080fd5b818501915085601f83011261195457600080fd5b81358181111561196357600080fd5b8660208260051b850101111561197857600080fd5b60209290920196919550909350505050565b6000806040838503121561199d57600080fd5b82356119a8816117c0565b946020939093013593505050565b634e487b7160e01b600052603260045260246000fd5b6000602082840312156119de57600080fd5b815180151581146118aa57600080fd5b634e487b7160e01b600052601160045260246000fd5b8082018082111561157c5761157c6119ee565b8181038181111561157c5761157c6119ee565b634e487b7160e01b600052603160045260246000fd5b600060018201611a5257611a526119ee565b5060010190565b808202811582820484141761157c5761157c6119ee565b600060208284031215611a8257600080fd5b81516118aa816117c0565b600060608284031215611a9f57600080fd5b6040516060810181811067ffffffffffffffff82111715611ad057634e487b7160e01b600052604160045260246000fd5b604052825160038110611ae257600080fd5b8152602083810151908201526040928301519281019290925250919050565b600082611b1e57634e487b7160e01b600052601260045260246000fd5b50049056fea26469706673582212205d871587ec948a0dc8bb447714d5ab51a1a8489a4e0464678a154c0ae8a28bdd64736f6c63430008140033",
  "linkReferences": {},
  "deployedLinkReferences": {}
}