{
  "_format": "hh-sol-artifact-1",
  "contractName": "PrivacyPool",
  "sourceName": "contracts/PrivacyPool.sol",
  "abi": [
    {
      "inputs": [
        {
          "internalType": "address",
          "name": "_fairToken",
          "type": "address"
        }
      ],
      "stateMutability": "nonpayable",
      "type": "constructor"
    },
    {
      "inputs": [
        {
          "internalType": "address",
          "name": "owner",
          "type": "address"
        }
      ],
      "name": "OwnableInvalidOwner",
      "type": "error"
    },
    {
      "inputs": [
        {
          "internalType": "address",
          "name": "account",
          "type": "address"
        }
      ],
      "name": "OwnableUnauthorizedAccount",
      "type": "error"
    },
    {
      "inputs": [],
      "name": "ReentrancyGuardReentrantCall",
      "type": "error"
    },
    {
      "anonymous": false,
      "inputs": [
        {
          "indexed": false,
          "internalType": "uint256",
          "name": "newFeeBps",
          "type": "uint256"
        }
      ],
      "name": "DepositFeeUpdated",
      "type": "event"
    },
    {
      "anonymous": false,
      "inputs": [
        {
          "indexed": true,
          "internalType": "address",
          "name": "depositor",
          "type": "address"
        },
        {
          "indexed": true,
          "internalType": "bytes32",
          "name": "commitmentHash",
          "type": "bytes32"
        },
        {
          "indexed": false,
          "internalType": "uint256",
          "name": "amount",
          "type": "uint256"
        },
        {
          "indexed": false,
          "internalType": "uint256",
          "name": "fee",
          "type": "uint256"
        }
      ],
      "name": "Deposited",
      "type": "event"
    },
    {
      "anonymous": false,
      "inputs": [
        {
          "indexed": true,
          "internalType": "address",
          "name": "owner",
          "type": "address"
        },
        {
          "indexed": false,
          "internalType": "uint256",
          "name": "amount",
          "type": "uint256"
        }
      ],
      "name": "FeesWithdrawn",
      "type": "event"
    },
    {
      "anonymous": false,
      "inputs": [
        {
          "indexed": false,
          "internalType": "uint256",
          "name": "newAmount",
          "type": "uint256"
        }
      ],
      "name": "MinDepositUpdated",
      "type": "event"
    },
    {
      "anonymous": false,
      "inputs": [
        {
          "indexed": true,
          "internalType": "address",
          "name": "previousOwner",
          "type": "address"
        },
        {
          "indexed": true,
          "internalType": "address",
          "name": "newOwner",
          "type": "address"
        }
      ],
      "name": "OwnershipTransferred",
      "type": "event"
    },
    {
      "anonymous": false,
      "inputs": [
        {
          "indexed": false,
          "internalType": "uint256",
          "name": "newFeeBps",
          "type": "uint256"
        }
      ],
      "name": "WithdrawalFeeUpdated",
      "type": "event"
    },
    {
      "anonymous": false,
      "inputs": [
        {
          "indexed": true,
          "internalType": "address",
          "name": "recipient",
          "type": "address"
        },
        {
          "indexed": true,
          "internalType": "bytes32",
          "name": "nullifierHash",
          "type": "bytes32"
        },
        {
          "indexed": false,
          "internalType": "uint256",
          "name": "amount",
          "type": "uint256"
        },
        {
          "indexed": false,
          "internalType": "uint256",
          "name": "fee",
          "type": "uint256"
        }
      ],
      "name": "Withdrawn",
      "type": "event"
    },
    {
      "inputs": [],
      "name": "BPS_DENOMINATOR",
      "outputs": [
        {
          "internalType": "uint256",
          "name": "",
          "type": "uint256"
        }
      ],
      "stateMutability": "view",
      "type": "function"
    },
    {
      "inputs": [
        {
          "internalType": "uint256[]",
          "name": "amounts",
          "type": "uint256[]"
        },
        {
          "internalType": "bytes32[]",
          "name": "commitmentHashes",
          "type": "bytes32[]"
        }
      ],
      "name": "batchDeposit",
      "outputs": [],
      "stateMutability": "nonpayable",
      "type": "function"
    },
    {
      "inputs": [
        {
          "internalType": "bytes32",
          "name": "",
          "type": "bytes32"
        }
      ],
      "name": "commitments",
      "outputs": [
        {
          "internalType": "bytes32",
          "name": "commitmentHash",
          "type": "bytes32"
        },
        {
          "internalType": "uint256",
          "name": "amount",
          "type": "uint256"
        },
        {
          "internalType": "uint256",
          "name": "timestamp",
          "type": "uint256"
        },
        {
          "internalType": "bool",
          "name": "spent",
          "type": "bool"
        }
      ],
      "stateMutability": "view",
      "type": "function"
    },
    {
      "inputs": [
        {
          "internalType": "uint256",
          "name": "amount",
          "type": "uint256"
        },
        {
          "internalType": "bytes32",
          "name": "commitmentHash",
          "type": "bytes32"
        }
      ],
      "name": "deposit",
      "outputs": [],
      "stateMutability": "nonpayable",
      "type": "function"
    },
    {
      "inputs": [],
      "name": "depositFeeBps",
      "outputs": [
        {
          "internalType": "uint256",
          "name": "",
          "type": "uint256"
        }
      ],
      "stateMutability": "view",
      "type": "function"
    },
    {
      "inputs": [],
      "name": "fairToken",
      "outputs": [
        {
          "internalType": "contract IERC20",
          "name": "",
          "type": "address"
        }
      ],
      "stateMutability": "view",
      "type": "function"
    },
    {
      "inputs": [
        {
          "internalType": "bytes32",
          "name": "commitmentHash",
          "type": "bytes32"
        }
      ],
      "name": "getCommitment",
      "outputs": [
        {
          "internalType": "uint256",
          "name": "amount",
          "type": "uint256"
        },
        {
          "internalType": "uint256",
          "name": "timestamp",
          "type": "uint256"
        },
        {
          "internalType": "bool",
          "name": "spent",
          "type": "bool"
        }
      ],
      "stateMutability": "view",
      "type": "function"
    },
    {
      "inputs": [],
      "name": "getPoolStats",
      "outputs": [
        {
          "internalType": "uint256",
          "name": "deposits",
          "type": "uint256"
        },
        {
          "internalType": "uint256",
          "name": "withdrawals",
          "type": "uint256"
        },
        {
          "internalType": "uint256",
          "name": "fees",
          "type": "uint256"
        },
        {
          "internalType": "uint256",
          "name": "balance",
          "type": "uint256"
        },
        {
          "internalType": "uint256",
          "name": "depositFee",
          "type": "uint256"
        },
        {
          "internalType": "uint256",
          "name": "withdrawalFee",
          "type": "uint256"
        }
      ],
      "stateMutability": "view",
      "type": "function"
    },
    {
      "inputs": [
        {
          "internalType": "bytes32",
          "name": "commitmentHash",
          "type": "bytes32"
        }
      ],
      "name": "isCommitmentValid",
      "outputs": [
        {
          "internalType": "bool",
          "name": "",
          "type": "bool"
        }
      ],
      "stateMutability": "view",
      "type": "function"
    },
    {
      "inputs": [],
      "name": "minDepositAmount",
      "outputs": [
        {
          "internalType": "uint256",
          "name": "",
          "type": "uint256"
        }
      ],
      "stateMutability": "view",
      "type": "function"
    },
    {
      "inputs": [
        {
          "internalType": "bytes32",
          "name": "",
          "type": "bytes32"
        }
      ],
      "name": "nullifierUsed",
      "outputs": [
        {
          "internalType": "bool",
          "name": "",
          "type": "bool"
        }
      ],
      "stateMutability": "view",
      "type": "function"
    },
    {
      "inputs": [],
      "name": "owner",
      "outputs": [
        {
          "internalType": "address",
          "name": "",
          "type": "address"
        }
      ],
      "stateMutability": "view",
      "type": "function"
    },
    {
      "inputs": [],
      "name": "poolBalance",
      "outputs": [
        {
          "internalType": "uint256",
          "name": "",
          "type": "uint256"
        }
      ],
      "stateMutability": "view",
      "type": "function"
    },
    {
      "inputs": [],
      "name": "renounceOwnership",
      "outputs": [],
      "stateMutability": "nonpayable",
      "type": "function"
    },
    {
      "inputs": [
        {
          "internalType": "uint256",
          "name": "newFeeBps",
          "type": "uint256"
        }
      ],
      "name": "setDepositFee",
      "outputs": [],
      "stateMutability": "nonpayable",
      "type": "function"
    },
    {
      "inputs": [
        {
          "internalType": "uint256",
          "name": "newAmount",
          "type": "uint256"
        }
      ],
      "name": "setMinDepositAmount",
      "outputs": [],
      "stateMutability": "nonpayable",
      "type": "function"
    },
    {
      "inputs": [
        {
          "internalType": "uint256",
          "name": "newFeeBps",
          "type": "uint256"
        }
      ],
      "name": "setWithdrawalFee",
      "outputs": [],
      "stateMutability": "nonpayable",
      "type": "function"
    },
    {
      "inputs": [],
      "name": "totalDeposits",
      "outputs": [
        {
          "internalType": "uint256",
          "name": "",
          "type": "uint256"
        }
      ],
      "stateMutability": "view",
      "type": "function"
    },
    {
      "inputs": [],
      "name": "totalFeesCollected",
      "outputs": [
        {
          "internalType": "uint256",
          "name": "",
          "type": "uint256"
        }
      ],
      "stateMutability": "view",
      "type": "function"
    },
    {
      "inputs": [],
      "name": "totalWithdrawals",
      "outputs": [
        {
          "internalType": "uint256",
          "name": "",
          "type": "uint256"
        }
      ],
      "stateMutability": "view",
      "type": "function"
    },
    {
      "inputs": [
        {
          "internalType": "address",
          "name": "newOwner",
          "type": "address"
        }
      ],
      "name": "transferOwnership",
      "outputs": [],
      "stateMutability": "nonpayable",
      "type": "function"
    },
    {
      "inputs": [
        {
          "internalType": "address",
          "name": "recipient",
          "type": "address"
        },
        {
          "internalType": "uint256",
          "name": "amount",
          "type": "uint256"
        },
        {
          "internalType": "bytes32",
          "name": "nullifierHash",
          "type": "bytes32"
        },
        {
          "internalType": "bytes32",
          "name": "secret",
          "type": "bytes32"
        }
      ],
      "name": "withdraw",
      "outputs": [],
      "stateMutability": "nonpayable",
      "type": "function"
    },
    {
      "inputs": [],
      "name": "withdrawFees",
      "outputs": [],
      "stateMutability": "nonpayable",
      "type": "function"
    },
    {
      "inputs": [],
      "name": "withdrawalFeeBps",
      "outputs": [
        {
          "internalType": "uint256",
          "name": "",
          "type": "uint256"
        }
      ],
      "stateMutability": "view",
      "type": "function"
    }
  ],
  "bytecode": "0x60a06040526064600255603260035568056bc75e2d631000006004553480156200002857600080fd5b50604051620017d8380380620017d88339810160408190526200004b916200013d565b33806200007357604051631e4fbdf760e01b8152600060048201526024015b60405180910390fd5b6200007e81620000ed565b50600180556001600160a01b038116620000db5760405162461bcd60e51b815260206004820152601560248201527f496e76616c696420746f6b656e2061646472657373000000000000000000000060448201526064016200006a565b6001600160a01b03166080526200016f565b600080546001600160a01b038381166001600160a01b0319831681178455604051919092169283917f8be0079c531659141344cd1fd0a4f28419497f9722a3daafe3b4186f6b6457e09190a35050565b6000602082840312156200015057600080fd5b81516001600160a01b03811681146200016857600080fd5b9392505050565b60805161162a620001ae600039600081816101e4015281816107900152818161099201528181610a5101528181610f130152611122015261162a6000f3fe608060405234801561001057600080fd5b50600436106101585760003560e01c80637d882097116100c3578063ac1e50251161007c578063ac1e502514610360578063b38a584014610373578063bbb8518814610386578063c9630cb0146103c5578063e1a45218146103d8578063f2fde38b146103e157600080fd5b80637d882097146102b75780637ecf686d146102c0578063839df945146102e35780638da5cb5b1461033d57806396365d441461034e578063ab8798271461035757600080fd5b80635202581d116101155780635202581d146101df578063604646271461021e57806360c6d8ae14610227578063645006ca14610230578063715018a6146102395780637795820c1461024157600080fd5b806304336bb31461015d57806312d0b239146101795780632a80cda31461018e57806342ffdb99146101a1578063476343ee146101c4578063490ae210146101cc575b600080fd5b61016660035481565b6040519081526020015b60405180910390f35b61018c6101873660046113cf565b6103f4565b005b61018c61019c36600461143b565b61087d565b6101b46101af36600461143b565b610902565b6040519015158152602001610170565b61018c61095e565b61018c6101da36600461143b565b610b77565b6102067f000000000000000000000000000000000000000000000000000000000000000081565b6040516001600160a01b039091168152602001610170565b61016660085481565b61016660095481565b61016660045481565b61018c610bf5565b61029a61024f36600461143b565b6000908152600560209081526040918290208251608081018452815481526001820154928101839052600282015493810184905260039091015460ff16151560609091018190529092565b604080519384526020840192909252151590820152606001610170565b61016660075481565b6101b46102ce36600461143b565b60066020526000908152604090205460ff1681565b61031b6102f136600461143b565b60056020526000908152604090208054600182015460028301546003909301549192909160ff1684565b6040805194855260208501939093529183015215156060820152608001610170565b6000546001600160a01b0316610206565b610166600a5481565b61016660025481565b61018c61036e36600461143b565b610c07565b61018c610381366004611470565b610c85565b600754600854600954600a54600254600354604080519687526020870195909552938501929092526060840152608083015260a082015260c001610170565b61018c6103d33660046114a9565b610fef565b61016661271081565b61018c6103ef3660046114cb565b61129e565b6103fc6112dc565b8281146104425760405162461bcd60e51b815260206004820152600f60248201526e098cadccee8d040dad2e6dac2e8c6d608b1b60448201526064015b60405180910390fd5b82158015906104525750600a8311155b6104935760405162461bcd60e51b8152602060048201526012602482015271496e76616c69642062617463682073697a6560701b6044820152606401610439565b60008060005b8581101561075e576004548787838181106104b6576104b66114e6565b9050602002013510156105025760405162461bcd60e51b8152602060048201526014602482015273416d6f756e742062656c6f77206d696e696d756d60601b6044820152606401610439565b6000858583818110610516576105166114e6565b905060200201350361055f5760405162461bcd60e51b8152602060048201526012602482015271125b9d985b1a590818dbdb5b5a5d1b595b9d60721b6044820152606401610439565b6000600581878785818110610576576105766114e6565b90506020020135815260200190815260200160002060000154146105d05760405162461bcd60e51b8152602060048201526011602482015270436f6d6d69746d656e742065786973747360781b6044820152606401610439565b60006127106002548989858181106105ea576105ea6114e6565b905060200201356105fb9190611512565b610605919061152f565b905060008189898581811061061c5761061c6114e6565b9050602002013561062d9190611551565b9050604051806080016040528088888681811061064c5761064c6114e6565b9050602002013581526020018281526020014281526020016000151581525060056000898987818110610681576106816114e6565b602090810292909201358352508181019290925260409081016000208351815591830151600183015582015160028201556060909101516003909101805460ff19169115159190911790556106d68186611564565b94506106e28285611564565b93508686848181106106f6576106f66114e6565b90506020020135336001600160a01b03167fcc9c1a7566adfa8bdc9f7a63a106576fec355c6b4f61ce07baad45eaa30560c38385604051610741929190918252602082015260400190565b60405180910390a35050808061075690611577565b915050610499565b50600061076b8284611564565b6040516323b872dd60e01b8152336004820152306024820152604481018290529091507f00000000000000000000000000000000000000000000000000000000000000006001600160a01b0316906323b872dd906064016020604051808303816000875af11580156107e1573d6000803e3d6000fd5b505050506040513d601f19601f820116820180604052508101906108059190611590565b6108215760405162461bcd60e51b8152600401610439906115b2565b82600760008282546108339190611564565b92505081905550816009600082825461084c9190611564565b9250508190555082600a60008282546108659190611564565b90915550506001805550610877915050565b50505050565b610885611306565b600081116108c65760405162461bcd60e51b815260206004820152600e60248201526d125b9d985b1a5908185b5bdd5b9d60921b6044820152606401610439565b60048190556040518181527f96a008f96f1c0ab9fa3d9ddd43cdfc614848c4d054d51f43662ed900e9d094c8906020015b60405180910390a150565b6000818152600560209081526040808320815160808101835281548082526001830154948201949094526002820154928101929092526003015460ff1615156060820152901580159061095757508060600151155b9392505050565b610966611306565b61096e6112dc565b600a546040516370a0823160e01b8152306004820152600091906001600160a01b037f000000000000000000000000000000000000000000000000000000000000000016906370a0823190602401602060405180830381865afa1580156109d9573d6000803e3d6000fd5b505050506040513d601f19601f820116820180604052508101906109fd91906115db565b610a079190611551565b905060008111610a4f5760405162461bcd60e51b81526020600482015260136024820152724e6f206665657320746f20776974686472617760681b6044820152606401610439565b7f00000000000000000000000000000000000000000000000000000000000000006001600160a01b031663a9059cbb610a906000546001600160a01b031690565b6040516001600160e01b031960e084901b1681526001600160a01b039091166004820152602481018490526044016020604051808303816000875af1158015610add573d6000803e3d6000fd5b505050506040513d601f19601f82011682018060405250810190610b019190611590565b610b1d5760405162461bcd60e51b8152600401610439906115b2565b6000546001600160a01b03166001600160a01b03167fc0819c13be868895eb93e40eaceb96de976442fa1d404e5c55f14bb65a8c489a82604051610b6391815260200190565b60405180910390a250610b7560018055565b565b610b7f611306565b6101f4811115610bc05760405162461bcd60e51b815260206004820152600c60248201526b08ccaca40e8dede40d0d2ced60a31b6044820152606401610439565b60028190556040518181527f206dd15151fcc83315419fbe53a71fcf9c09da803767d3dd05f7874e1b9bf645906020016108f7565b610bfd611306565b610b756000611333565b610c0f611306565b6101f4811115610c505760405162461bcd60e51b815260206004820152600c60248201526b08ccaca40e8dede40d0d2ced60a31b6044820152606401610439565b60038190556040518181527fe94edcc114da5287ecb30ee8aacf12e6c16b11b8583d7f9e477ab1616e33d53d906020016108f7565b610c8d6112dc565b6001600160a01b038416610cd75760405162461bcd60e51b8152602060048201526011602482015270125b9d985b1a59081c9958da5c1a595b9d607a1b6044820152606401610439565b60008281526006602052604090205460ff1615610d2f5760405162461bcd60e51b8152602060048201526016602482015275139d5b1b1a599a595c88185b1c9958591e481d5cd95960521b6044820152606401610439565b60408051602080820184905281830185905282518083038401815260609092018352815191810191909120600081815260059092529190208054610dac5760405162461bcd60e51b815260206004820152601460248201527310dbdb5b5a5d1b595b9d081b9bdd08199bdd5b9960621b6044820152606401610439565b600381015460ff1615610df55760405162461bcd60e51b815260206004820152601160248201527020b63932b0b23c903bb4ba34323930bbb760791b6044820152606401610439565b8481600101541015610e495760405162461bcd60e51b815260206004820152601e60248201527f496e73756666696369656e7420636f6d6d69746d656e7420616d6f756e7400006044820152606401610439565b600061271060035487610e5c9190611512565b610e66919061152f565b90506000610e748288611551565b600384018054600160ff199182168117909255600089815260066020526040812080549092169092179055600880549293508392909190610eb6908490611564565b925050819055508160096000828254610ecf9190611564565b9250508190555086600a6000828254610ee89190611551565b909155505060405163a9059cbb60e01b81526001600160a01b038981166004830152602482018390527f0000000000000000000000000000000000000000000000000000000000000000169063a9059cbb906044016020604051808303816000875af1158015610f5c573d6000803e3d6000fd5b505050506040513d601f19601f82011682018060405250810190610f809190611590565b610f9c5760405162461bcd60e51b8152600401610439906115b2565b604080518281526020810184905287916001600160a01b038b16917f2c2b206b9475386bb995c366956ade2de7bd0e3208dd1fb3833c280929a93005910160405180910390a35050505061087760018055565b610ff76112dc565b6004548210156110405760405162461bcd60e51b8152602060048201526014602482015273416d6f756e742062656c6f77206d696e696d756d60601b6044820152606401610439565b806110825760405162461bcd60e51b8152602060048201526012602482015271125b9d985b1a590818dbdb5b5a5d1b595b9d60721b6044820152606401610439565b600081815260056020526040902054156110d25760405162461bcd60e51b8152602060048201526011602482015270436f6d6d69746d656e742065786973747360781b6044820152606401610439565b6000612710600254846110e59190611512565b6110ef919061152f565b905060006110fd8285611551565b6040516323b872dd60e01b8152336004820152306024820152604481018690529091507f00000000000000000000000000000000000000000000000000000000000000006001600160a01b0316906323b872dd906064016020604051808303816000875af1158015611173573d6000803e3d6000fd5b505050506040513d601f19601f820116820180604052508101906111979190611590565b6111b35760405162461bcd60e51b8152600401610439906115b2565b6040805160808101825284815260208082018481524283850190815260006060850181815289825260059094529485209351845590516001840155516002830155516003909101805460ff19169115159190911790556007805483929061121b908490611564565b9250508190555081600960008282546112349190611564565b9250508190555080600a600082825461124d9190611564565b90915550506040805182815260208101849052849133917fcc9c1a7566adfa8bdc9f7a63a106576fec355c6b4f61ce07baad45eaa30560c3910160405180910390a3505061129a60018055565b5050565b6112a6611306565b6001600160a01b0381166112d057604051631e4fbdf760e01b815260006004820152602401610439565b6112d981611333565b50565b6002600154036112ff57604051633ee5aeb560e01b815260040160405180910390fd5b6002600155565b6000546001600160a01b03163314610b755760405163118cdaa760e01b8152336004820152602401610439565b600080546001600160a01b038381166001600160a01b0319831681178455604051919092169283917f8be0079c531659141344cd1fd0a4f28419497f9722a3daafe3b4186f6b6457e09190a35050565b60008083601f84011261139557600080fd5b50813567ffffffffffffffff8111156113ad57600080fd5b6020830191508360208260051b85010111156113c857600080fd5b9250929050565b600080600080604085870312156113e557600080fd5b843567ffffffffffffffff808211156113fd57600080fd5b61140988838901611383565b9096509450602087013591508082111561142257600080fd5b5061142f87828801611383565b95989497509550505050565b60006020828403121561144d57600080fd5b5035919050565b80356001600160a01b038116811461146b57600080fd5b919050565b6000806000806080858703121561148657600080fd5b61148f85611454565b966020860135965060408601359560600135945092505050565b600080604083850312156114bc57600080fd5b50508035926020909101359150565b6000602082840312156114dd57600080fd5b61095782611454565b634e487b7160e01b600052603260045260246000fd5b634e487b7160e01b600052601160045260246000fd5b8082028115828204841417611529576115296114fc565b92915050565b60008261154c57634e487b7160e01b600052601260045260246000fd5b500490565b81810381811115611529576115296114fc565b80820180821115611529576115296114fc565b600060018201611589576115896114fc565b5060010190565b6000602082840312156115a257600080fd5b8151801515811461095757600080fd5b6020808252600f908201526e151c985b9cd9995c8819985a5b1959608a1b604082015260600190565b6000602082840312156115ed57600080fd5b505191905056fea2646970667358221220fb9269cb03de98698983085b60135408f04e4fe7805a3db32b1137469547ba4364736f6c63430008140033",
  "linkReferences": {},
  "deployedLinkReferences": {}
}