{
  "_format": "hh-sol-artifact-1",
  "contractName": "FAIRToken",
  "sourceName": "contracts/FAIRToken.sol",
  "abi": [
    {
      "inputs": [],
      "stateMutability": "nonpayable",
      "type": "constructor"
    },
    {
      "inputs": [
        {
          "internalType": "address",
          "name": "spender",
          "type": "address"
        },
        {
          "internalType": "uint256",
          "name": "allowance",
          "type": "uint256"
        },
        {
          "internalType": "uint256",
          "name": "needed",
          "type": "uint256"
        }
      ],
      "name": "ERC20InsufficientAllowance",
      "type": "error"
    },
    {
      "inputs": [
        {
          "internalType": "address",
          "name": "sender",
          "type": "address"
        },
        {
          "internalType": "uint256",
          "name": "balance",
          "type": "uint256"
        },
        {
          "internalType": "uint256",
          "name": "needed",
          "type": "uint256"
        }
      ],
      "name": "ERC20InsufficientBalance",
      "type": "error"
    },
    {
      "inputs": [
        {
          "internalType": "address",
          "name": "approver",
          "type": "address"
        }
      ],
      "name": "ERC20InvalidApprover",
      "type": "error"
    },
    {
      "inputs": [
        {
          "internalType": "address",
          "name": "receiver",
          "type": "address"
        }
      ],
      "name": "ERC20InvalidReceiver",
      "type": "error"
    },
    {
      "inputs": [
        {
          "internalType": "address",
          "name": "sender",
          "type": "address"
        }
      ],
      "name": "ERC20InvalidSender",
      "type": "error"
    },
    {
      "inputs": [
        {
          "internalType": "address",
          "name": "spender",
          "type": "address"
        }
      ],
      "name": "ERC20InvalidSpender",
      "type": "error"
    },
    {
      "inputs": [
        {
          "internalType": "address",
          "name": "owner",
          "type": "address"
        }
      ],
      "name": "OwnableInvalidOwner",
      "type": "error"
    },
    {
      "inputs": [
        {
          "internalType": "address",
          "name": "account",
          "type": "address"
        }
      ],
      "name": "OwnableUnauthorizedAccount",
      "type": "error"
    },
    {
      "anonymous": false,
      "inputs": [
        {
          "indexed": true,
          "internalType": "address",
          "name": "owner",
          "type": "address"
        },
        {
          "indexed": true,
          "internalType": "address",
          "name": "spender",
          "type": "address"
        },
        {
          "indexed": false,
          "internalType": "uint256",
          "name": "value",
          "type": "uint256"
        }
      ],
      "name": "Approval",
      "type": "event"
    },
    {
      "anonymous": false,
      "inputs": [
        {
          "indexed": true,
          "internalType": "address",
          "name": "previousOwner",
          "type": "address"
        },
        {
          "indexed": true,
          "internalType": "address",
          "name": "newOwner",
          "type": "address"
        }
      ],
      "name": "OwnershipTransferred",
      "type": "event"
    },
    {
      "anonymous": false,
      "inputs": [
        {
          "indexed": false,
          "internalType": "address",
          "name": "liquidityAddress",
          "type": "address"
        },
        {
          "indexed": false,
          "internalType": "address",
          "name": "miningRewardsAddress",
          "type": "address"
        },
        {
          "indexed": false,
          "internalType": "address",
          "name": "developmentAddress",
          "type": "address"
        },
        {
          "indexed": false,
          "internalType": "address",
          "name": "marketingAddress",
          "type": "address"
        },
        {
          "indexed": false,
          "internalType": "address",
          "name": "treasuryAddress",
          "type": "address"
        }
      ],
      "name": "TokensDistributed",
      "type": "event"
    },
    {
      "anonymous": false,
      "inputs": [
        {
          "indexed": true,
          "internalType": "address",
          "name": "from",
          "type": "address"
        },
        {
          "indexed": true,
          "internalType": "address",
          "name": "to",
          "type": "address"
        },
        {
          "indexed": false,
          "internalType": "uint256",
          "name": "value",
          "type": "uint256"
        }
      ],
      "name": "Transfer",
      "type": "event"
    },
    {
      "inputs": [],
      "name": "DEVELOPMENT_ALLOCATION",
      "outputs": [
        {
          "internalType": "uint256",
          "name": "",
          "type": "uint256"
        }
      ],
      "stateMutability": "view",
      "type": "function"
    },
    {
      "inputs": [],
      "name": "LIQUIDITY_ALLOCATION",
      "outputs": [
        {
          "internalType": "uint256",
          "name": "",
          "type": "uint256"
        }
      ],
      "stateMutability": "view",
      "type": "function"
    },
    {
      "inputs": [],
      "name": "MARKETING_ALLOCATION",
      "outputs": [
        {
          "internalType": "uint256",
          "name": "",
          "type": "uint256"
        }
      ],
      "stateMutability": "view",
      "type": "function"
    },
    {
      "inputs": [],
      "name": "MINING_REWARDS_ALLOCATION",
      "outputs": [
        {
          "internalType": "uint256",
          "name": "",
          "type": "uint256"
        }
      ],
      "stateMutability": "view",
      "type": "function"
    },
    {
      "inputs": [],
      "name": "TOTAL_SUPPLY",
      "outputs": [
        {
          "internalType": "uint256",
          "name": "",
          "type": "uint256"
        }
      ],
      "stateMutability": "view",
      "type": "function"
    },
    {
      "inputs": [],
      "name": "TREASURY_ALLOCATION",
      "outputs": [
        {
          "internalType": "uint256",
          "name": "",
          "type": "uint256"
        }
      ],
      "stateMutability": "view",
      "type": "function"
    },
    {
      "inputs": [
        {
          "internalType": "address",
          "name": "owner",
          "type": "address"
        },
        {
          "internalType": "address",
          "name": "spender",
          "type": "address"
        }
      ],
      "name": "allowance",
      "outputs": [
        {
          "internalType": "uint256",
          "name": "",
          "type": "uint256"
        }
      ],
      "stateMutability": "view",
      "type": "function"
    },
    {
      "inputs": [
        {
          "internalType": "address",
          "name": "spender",
          "type": "address"
        },
        {
          "internalType": "uint256",
          "name": "value",
          "type": "uint256"
        }
      ],
      "name": "approve",
      "outputs": [
        {
          "internalType": "bool",
          "name": "",
          "type": "bool"
        }
      ],
      "stateMutability": "nonpayable",
      "type": "function"
    },
    {
      "inputs": [
        {
          "internalType": "address",
          "name": "account",
          "type": "address"
        }
      ],
      "name": "balanceOf",
      "outputs": [
        {
          "internalType": "uint256",
          "name": "",
          "type": "uint256"
        }
      ],
      "stateMutability": "view",
      "type": "function"
    },
    {
      "inputs": [],
      "name": "decimals",
      "outputs": [
        {
          "internalType": "uint8",
          "name": "",
          "type": "uint8"
        }
      ],
      "stateMutability": "view",
      "type": "function"
    },
    {
      "inputs": [
        {
          "internalType": "address",
          "name": "liquidityAddress",
          "type": "address"
        },
        {
          "internalType": "address",
          "name": "miningRewardsAddress",
          "type": "address"
        },
        {
          "internalType": "address",
          "name": "developmentAddress",
          "type": "address"
        },
        {
          "internalType": "address",
          "name": "marketingAddress",
          "type": "address"
        },
        {
          "internalType": "address",
          "name": "treasuryAddress",
          "type": "address"
        }
      ],
      "name": "initializeDistribution",
      "outputs": [],
      "stateMutability": "nonpayable",
      "type": "function"
    },
    {
      "inputs": [],
      "name": "initialized",
      "outputs": [
        {
          "internalType": "bool",
          "name": "",
          "type": "bool"
        }
      ],
      "stateMutability": "view",
      "type": "function"
    },
    {
      "inputs": [],
      "name": "name",
      "outputs": [
        {
          "internalType": "string",
          "name": "",
          "type": "string"
        }
      ],
      "stateMutability": "view",
      "type": "function"
    },
    {
      "inputs": [],
      "name": "owner",
      "outputs": [
        {
          "internalType": "address",
          "name": "",
          "type": "address"
        }
      ],
      "stateMutability": "view",
      "type": "function"
    },
    {
      "inputs": [],
      "name": "renounceOwnership",
      "outputs": [],
      "stateMutability": "nonpayable",
      "type": "function"
    },
    {
      "inputs": [],
      "name": "symbol",
      "outputs": [
        {
          "internalType": "string",
          "name": "",
          "type": "string"
        }
      ],
      "stateMutability": "view",
      "type": "function"
    },
    {
      "inputs": [],
      "name": "totalSupply",
      "outputs": [
        {
          "internalType": "uint256",
          "name": "",
          "type": "uint256"
        }
      ],
      "stateMutability": "view",
      "type": "function"
    },
    {
      "inputs": [
        {
          "internalType": "address",
          "name": "to",
          "type": "address"
        },
        {
          "internalType": "uint256",
          "name": "value",
          "type": "uint256"
        }
      ],
      "name": "transfer",
      "outputs": [
        {
          "internalType": "bool",
          "name": "",
          "type": "bool"
        }
      ],
      "stateMutability": "nonpayable",
      "type": "function"
    },
    {
      "inputs": [
        {
          "internalType": "address",
          "name": "from",
          "type": "address"
        },
        {
          "internalType": "address",
          "name": "to",
          "type": "address"
        },
        {
          "internalType": "uint256",
          "name": "value",
          "type": "uint256"
        }
      ],
      "name": "transferFrom",
      "outputs": [
        {
          "internalType": "bool",
          "name": "",
          "type": "bool"
        }
      ],
      "stateMutability": "nonpayable",
      "type": "function"
    },
    {
      "inputs": [
        {
          "internalType": "address",
          "name": "newOwner",
          "type": "address"
        }
      ],
      "name": "transferOwnership",
      "outputs": [],
      "stateMutability": "nonpayable",
      "type": "function"
    }
  ],
  "bytecode": "0x60806040523480156200001157600080fd5b50336040518060400160405280600a8152602001692320a4a9102a37b5b2b760b11b815250604051806040016040528060048152602001632320a4a960e11b815250816003908162000064919062000338565b50600462000073828262000338565b5050506001600160a01b038116620000a657604051631e4fbdf760e01b8152600060048201526024015b60405180910390fd5b620000b181620000d0565b50620000ca306b033b2e3c9fd0803ce800000062000122565b6200042c565b600580546001600160a01b038381166001600160a01b0319831681179093556040519116919082907f8be0079c531659141344cd1fd0a4f28419497f9722a3daafe3b4186f6b6457e090600090a35050565b6001600160a01b0382166200014e5760405163ec442f0560e01b8152600060048201526024016200009d565b6200015c6000838362000160565b5050565b6001600160a01b0383166200018f57806002600082825462000183919062000404565b90915550620002039050565b6001600160a01b03831660009081526020819052604090205481811015620001e45760405163391434e360e21b81526001600160a01b038516600482015260248101829052604481018390526064016200009d565b6001600160a01b03841660009081526020819052604090209082900390555b6001600160a01b038216620002215760028054829003905562000240565b6001600160a01b03821660009081526020819052604090208054820190555b816001600160a01b0316836001600160a01b03167fddf252ad1be2c89b69c2b068fc378daa952ba7f163c4a11628f55a4df523b3ef836040516200028691815260200190565b60405180910390a3505050565b634e487b7160e01b600052604160045260246000fd5b600181811c90821680620002be57607f821691505b602082108103620002df57634e487b7160e01b600052602260045260246000fd5b50919050565b601f8211156200033357600081815260208120601f850160051c810160208610156200030e5750805b601f850160051c820191505b818110156200032f578281556001016200031a565b5050505b505050565b81516001600160401b0381111562000354576200035462000293565b6200036c81620003658454620002a9565b84620002e5565b602080601f831160018114620003a457600084156200038b5750858301515b600019600386901b1c1916600185901b1785556200032f565b600085815260208120601f198616915b82811015620003d557888601518255948401946001909101908401620003b4565b5085821015620003f45787850151600019600388901b60f8161c191681555b5050505050600190811b01905550565b808201808211156200042657634e487b7160e01b600052601160045260246000fd5b92915050565b610ca7806200043c6000396000f3fe608060405234801561001057600080fd5b506004361061012c5760003560e01c80638e80bd39116100ad578063bf1ad7e011610071578063bf1ad7e01461026d578063dd62ed3e1461027f578063e1807b27146102b8578063f2fde38b146102ca578063f9428f38146102dd57600080fd5b80638e80bd391461021b578063902d55a51461022d57806395d89b4114610240578063a9059cbb14610248578063b4533d421461025b57600080fd5b8063313ce567116100f4578063313ce567146101ab578063616d6e67146101ba57806370a08231146101cf578063715018a6146101f85780638da5cb5b1461020057600080fd5b806306fdde0314610131578063095ea7b31461014f578063158ef93e1461017257806318160ddd1461018657806323b872dd14610198575b600080fd5b6101396102f0565b6040516101469190610a8c565b60405180910390f35b61016261015d366004610af6565b610382565b6040519015158152602001610146565b60055461016290600160a01b900460ff1681565b6002545b604051908152602001610146565b6101626101a6366004610b20565b61039c565b60405160128152602001610146565b6101cd6101c8366004610b5c565b6103c0565b005b61018a6101dd366004610bc1565b6001600160a01b031660009081526020819052604090205490565b6101cd6106af565b6005546040516001600160a01b039091168152602001610146565b61018a6a18d0bf423c03d8de00000081565b61018a6b033b2e3c9fd0803ce800000081565b6101396106c3565b610162610256366004610af6565b6106d2565b61018a6aa56fa5b99019a5c800000081565b61018a6a108b2a2c2802909400000081565b61018a61028d366004610be3565b6001600160a01b03918216600090815260016020908152604080832093909416825291909152205490565b61018a6a295be96e6406697200000081565b6101cd6102d8366004610bc1565b6106e0565b61018a6b024306c4097859c43c00000081565b6060600380546102ff90610c16565b80601f016020809104026020016040519081016040528092919081815260200182805461032b90610c16565b80156103785780601f1061034d57610100808354040283529160200191610378565b820191906000526020600020905b81548152906001019060200180831161035b57829003601f168201915b5050505050905090565b60003361039081858561071e565b60019150505b92915050565b6000336103aa858285610730565b6103b58585856107af565b506001949350505050565b6103c861080e565b600554600160a01b900460ff161561041d5760405162461bcd60e51b8152602060048201526013602482015272105b1c9958591e481a5b9a5d1a585b1a5e9959606a1b60448201526064015b60405180910390fd5b6001600160a01b0385166104735760405162461bcd60e51b815260206004820152601960248201527f496e76616c6964206c69717569646974792061646472657373000000000000006044820152606401610414565b6001600160a01b0384166104c95760405162461bcd60e51b815260206004820152601e60248201527f496e76616c6964206d696e696e672072657761726473206164647265737300006044820152606401610414565b6001600160a01b03831661051f5760405162461bcd60e51b815260206004820152601b60248201527f496e76616c696420646576656c6f706d656e74206164647265737300000000006044820152606401610414565b6001600160a01b0382166105755760405162461bcd60e51b815260206004820152601960248201527f496e76616c6964206d61726b6574696e672061646472657373000000000000006044820152606401610414565b6001600160a01b0381166105cb5760405162461bcd60e51b815260206004820152601860248201527f496e76616c6964207472656173757279206164647265737300000000000000006044820152606401610414565b6005805460ff60a01b1916600160a01b1790556105f530866b024306c4097859c43c0000006107af565b61060b30856aa56fa5b99019a5c80000006107af565b61062130846a295be96e640669720000006107af565b61063730836a18d0bf423c03d8de0000006107af565b61064d30826a108b2a2c280290940000006107af565b604080516001600160a01b03878116825286811660208301528581168284015284811660608301528316608082015290517fcf340ee3c355b02c7f2cbdcf0d12dc15ecefe01db2236d9c325b42dfb50663d99181900360a00190a15050505050565b6106b761080e565b6106c1600061083b565b565b6060600480546102ff90610c16565b6000336103908185856107af565b6106e861080e565b6001600160a01b03811661071257604051631e4fbdf760e01b815260006004820152602401610414565b61071b8161083b565b50565b61072b838383600161088d565b505050565b6001600160a01b038381166000908152600160209081526040808320938616835292905220546000198110156107a9578181101561079a57604051637dc7a0d960e11b81526001600160a01b03841660048201526024810182905260448101839052606401610414565b6107a98484848403600061088d565b50505050565b6001600160a01b0383166107d957604051634b637e8f60e11b815260006004820152602401610414565b6001600160a01b0382166108035760405163ec442f0560e01b815260006004820152602401610414565b61072b838383610962565b6005546001600160a01b031633146106c15760405163118cdaa760e01b8152336004820152602401610414565b600580546001600160a01b038381166001600160a01b0319831681179093556040519116919082907f8be0079c531659141344cd1fd0a4f28419497f9722a3daafe3b4186f6b6457e090600090a35050565b6001600160a01b0384166108b75760405163e602df0560e01b815260006004820152602401610414565b6001600160a01b0383166108e157604051634a1406b160e11b815260006004820152602401610414565b6001600160a01b03808516600090815260016020908152604080832093871683529290522082905580156107a957826001600160a01b0316846001600160a01b03167f8c5be1e5ebec7d5bd14f71427d1e84f3dd0314c0f7b2291e5b200ac8c7c3b9258460405161095491815260200190565b60405180910390a350505050565b6001600160a01b03831661098d5780600260008282546109829190610c50565b909155506109ff9050565b6001600160a01b038316600090815260208190526040902054818110156109e05760405163391434e360e21b81526001600160a01b03851660048201526024810182905260448101839052606401610414565b6001600160a01b03841660009081526020819052604090209082900390555b6001600160a01b038216610a1b57600280548290039055610a3a565b6001600160a01b03821660009081526020819052604090208054820190555b816001600160a01b0316836001600160a01b03167fddf252ad1be2c89b69c2b068fc378daa952ba7f163c4a11628f55a4df523b3ef83604051610a7f91815260200190565b60405180910390a3505050565b600060208083528351808285015260005b81811015610ab957858101830151858201604001528201610a9d565b506000604082860101526040601f19601f8301168501019250505092915050565b80356001600160a01b0381168114610af157600080fd5b919050565b60008060408385031215610b0957600080fd5b610b1283610ada565b946020939093013593505050565b600080600060608486031215610b3557600080fd5b610b3e84610ada565b9250610b4c60208501610ada565b9150604084013590509250925092565b600080600080600060a08688031215610b7457600080fd5b610b7d86610ada565b9450610b8b60208701610ada565b9350610b9960408701610ada565b9250610ba760608701610ada565b9150610bb560808701610ada565b90509295509295909350565b600060208284031215610bd357600080fd5b610bdc82610ada565b9392505050565b60008060408385031215610bf657600080fd5b610bff83610ada565b9150610c0d60208401610ada565b90509250929050565b600181811c90821680610c2a57607f821691505b602082108103610c4a57634e487b7160e01b600052602260045260246000fd5b50919050565b8082018082111561039657634e487b7160e01b600052601160045260246000fdfea26469706673582212207fe6125faab87baab000d03d906da402c7a48f7c5dbc12cfc4b06d575891b69464736f6c63430008140033",
  "linkReferences": {},
  "deployedLinkReferences": {}
}