{
  "_format": "hh-sol-artifact-1",
  "contractName": "MinerSale",
  "sourceName": "contracts/MinerSale.sol",
  "abi": [
    {
      "inputs": [
        {
          "internalType": "address",
          "name": "_fairToken",
          "type": "address"
        },
        {
          "internalType": "address",
          "name": "_fairMiner",
          "type": "address"
        },
        {
          "internalType": "address",
          "name": "_revenueDistributor",
          "type": "address"
        }
      ],
      "stateMutability": "nonpayable",
      "type": "constructor"
    },
    {
      "inputs": [
        {
          "internalType": "address",
          "name": "owner",
          "type": "address"
        }
      ],
      "name": "OwnableInvalidOwner",
      "type": "error"
    },
    {
      "inputs": [
        {
          "internalType": "address",
          "name": "account",
          "type": "address"
        }
      ],
      "name": "OwnableUnauthorizedAccount",
      "type": "error"
    },
    {
      "inputs": [],
      "name": "ReentrancyGuardReentrantCall",
      "type": "error"
    },
    {
      "anonymous": false,
      "inputs": [
        {
          "indexed": true,
          "internalType": "address",
          "name": "buyer",
          "type": "address"
        },
        {
          "indexed": true,
          "internalType": "uint256",
          "name": "tokenId",
          "type": "uint256"
        },
        {
          "indexed": false,
          "internalType": "enum FAIRMiner.MinerTier",
          "name": "tier",
          "type": "uint8"
        },
        {
          "indexed": false,
          "internalType": "uint256",
          "name": "price",
          "type": "uint256"
        }
      ],
      "name": "MinerPurchased",
      "type": "event"
    },
    {
      "anonymous": false,
      "inputs": [
        {
          "indexed": true,
          "internalType": "address",
          "name": "previousOwner",
          "type": "address"
        },
        {
          "indexed": true,
          "internalType": "address",
          "name": "newOwner",
          "type": "address"
        }
      ],
      "name": "OwnershipTransferred",
      "type": "event"
    },
    {
      "anonymous": false,
      "inputs": [
        {
          "indexed": true,
          "internalType": "address",
          "name": "to",
          "type": "address"
        },
        {
          "indexed": false,
          "internalType": "uint256",
          "name": "amount",
          "type": "uint256"
        }
      ],
      "name": "ProtocolRevenueWithdrawn",
      "type": "event"
    },
    {
      "anonymous": false,
      "inputs": [
        {
          "indexed": true,
          "internalType": "address",
          "name": "distributor",
          "type": "address"
        }
      ],
      "name": "RevenueDistributorUpdated",
      "type": "event"
    },
    {
      "anonymous": false,
      "inputs": [
        {
          "indexed": false,
          "internalType": "bool",
          "name": "active",
          "type": "bool"
        }
      ],
      "name": "SaleStatusUpdated",
      "type": "event"
    },
    {
      "inputs": [],
      "name": "BPS_DENOMINATOR",
      "outputs": [
        {
          "internalType": "uint256",
          "name": "",
          "type": "uint256"
        }
      ],
      "stateMutability": "view",
      "type": "function"
    },
    {
      "inputs": [],
      "name": "PROTOCOL_FEE_BPS",
      "outputs": [
        {
          "internalType": "uint256",
          "name": "",
          "type": "uint256"
        }
      ],
      "stateMutability": "view",
      "type": "function"
    },
    {
      "inputs": [],
      "name": "distributorRevenue",
      "outputs": [
        {
          "internalType": "uint256",
          "name": "",
          "type": "uint256"
        }
      ],
      "stateMutability": "view",
      "type": "function"
    },
    {
      "inputs": [],
      "name": "fairMiner",
      "outputs": [
        {
          "internalType": "contract FAIRMiner",
          "name": "",
          "type": "address"
        }
      ],
      "stateMutability": "view",
      "type": "function"
    },
    {
      "inputs": [],
      "name": "fairToken",
      "outputs": [
        {
          "internalType": "contract IERC20",
          "name": "",
          "type": "address"
        }
      ],
      "stateMutability": "view",
      "type": "function"
    },
    {
      "inputs": [],
      "name": "getSaleStats",
      "outputs": [
        {
          "internalType": "bool",
          "name": "active",
          "type": "bool"
        },
        {
          "internalType": "uint256",
          "name": "total",
          "type": "uint256"
        },
        {
          "internalType": "uint256",
          "name": "protocol",
          "type": "uint256"
        },
        {
          "internalType": "uint256",
          "name": "distributor",
          "type": "uint256"
        }
      ],
      "stateMutability": "view",
      "type": "function"
    },
    {
      "inputs": [],
      "name": "owner",
      "outputs": [
        {
          "internalType": "address",
          "name": "",
          "type": "address"
        }
      ],
      "stateMutability": "view",
      "type": "function"
    },
    {
      "inputs": [],
      "name": "protocolRevenue",
      "outputs": [
        {
          "internalType": "uint256",
          "name": "",
          "type": "uint256"
        }
      ],
      "stateMutability": "view",
      "type": "function"
    },
    {
      "inputs": [
        {
          "internalType": "enum FAIRMiner.MinerTier",
          "name": "tier",
          "type": "uint8"
        }
      ],
      "name": "purchaseMiner",
      "outputs": [
        {
          "internalType": "uint256",
          "name": "",
          "type": "uint256"
        }
      ],
      "stateMutability": "nonpayable",
      "type": "function"
    },
    {
      "inputs": [
        {
          "internalType": "enum FAIRMiner.MinerTier",
          "name": "tier",
          "type": "uint8"
        },
        {
          "internalType": "uint256",
          "name": "quantity",
          "type": "uint256"
        }
      ],
      "name": "purchaseMiners",
      "outputs": [
        {
          "internalType": "uint256[]",
          "name": "",
          "type": "uint256[]"
        }
      ],
      "stateMutability": "nonpayable",
      "type": "function"
    },
    {
      "inputs": [],
      "name": "renounceOwnership",
      "outputs": [],
      "stateMutability": "nonpayable",
      "type": "function"
    },
    {
      "inputs": [],
      "name": "revenueDistributor",
      "outputs": [
        {
          "internalType": "address",
          "name": "",
          "type": "address"
        }
      ],
      "stateMutability": "view",
      "type": "function"
    },
    {
      "inputs": [],
      "name": "saleActive",
      "outputs": [
        {
          "internalType": "bool",
          "name": "",
          "type": "bool"
        }
      ],
      "stateMutability": "view",
      "type": "function"
    },
    {
      "inputs": [
        {
          "internalType": "address",
          "name": "_revenueDistributor",
          "type": "address"
        }
      ],
      "name": "setRevenueDistributor",
      "outputs": [],
      "stateMutability": "nonpayable",
      "type": "function"
    },
    {
      "inputs": [
        {
          "internalType": "bool",
          "name": "active",
          "type": "bool"
        }
      ],
      "name": "setSaleActive",
      "outputs": [],
      "stateMutability": "nonpayable",
      "type": "function"
    },
    {
      "inputs": [],
      "name": "totalRevenue",
      "outputs": [
        {
          "internalType": "uint256",
          "name": "",
          "type": "uint256"
        }
      ],
      "stateMutability": "view",
      "type": "function"
    },
    {
      "inputs": [
        {
          "internalType": "address",
          "name": "newOwner",
          "type": "address"
        }
      ],
      "name": "transferOwnership",
      "outputs": [],
      "stateMutability": "nonpayable",
      "type": "function"
    },
    {
      "inputs": [],
      "name": "withdrawProtocolRevenue",
      "outputs": [],
      "stateMutability": "nonpayable",
      "type": "function"
    }
  ],
  "bytecode": "0x60c06040523480156200001157600080fd5b506040516200163e3803806200163e833981016040819052620000349162000216565b33806200005c57604051631e4fbdf760e01b8152600060048201526024015b60405180910390fd5b6200006781620001a9565b50600180556001600160a01b038316620000c45760405162461bcd60e51b815260206004820152601560248201527f496e76616c696420746f6b656e20616464726573730000000000000000000000604482015260640162000053565b6001600160a01b0382166200011c5760405162461bcd60e51b815260206004820152601560248201527f496e76616c6964206d696e657220616464726573730000000000000000000000604482015260640162000053565b6001600160a01b038116620001745760405162461bcd60e51b815260206004820152601b60248201527f496e76616c6964206469737472696275746f7220616464726573730000000000604482015260640162000053565b6001600160a01b0392831660805290821660a052600280546001600160a81b0319169190921617600160a01b17905562000260565b600080546001600160a01b038381166001600160a01b0319831681178455604051919092169283917f8be0079c531659141344cd1fd0a4f28419497f9722a3daafe3b4186f6b6457e09190a35050565b80516001600160a01b03811681146200021157600080fd5b919050565b6000806000606084860312156200022c57600080fd5b6200023784620001f9565b92506200024760208501620001f9565b91506200025760408501620001f9565b90509250925092565b60805160a051611372620002cc60003960008181610174015281816103ce015281816106d6015281816108dd0152610c560152600081816101b3015281816104dc0152818161060101528181610a0d01528181610b3201528181610dd50152610e9501526113726000f3fe608060405234801561001057600080fd5b50600436106101165760003560e01c80638da5cb5b116100a2578063bf2d9e0b11610071578063bf2d9e0b14610280578063e1a4521814610289578063eae0a48814610292578063f2fde38b146102a5578063fd22b17c146102b857600080fd5b80638da5cb5b1461023e578063929abd611461024f578063a53828081461026f578063be3782281461027857600080fd5b80635adc2b34116100e95780635adc2b34146101d557806368428a1b146101f6578063715018a61461021a5780637af3816c14610222578063841718a61461022b57600080fd5b8063136ea6741461011b578063179f9e651461015a5780631df381391461016f5780635202581d146101ae575b600080fd5b600254600354600454600554600160a01b90930460ff169260408051941515855260208501939093529183015260608201526080015b60405180910390f35b61016d61016836600461107d565b6102c0565b005b6101967f000000000000000000000000000000000000000000000000000000000000000081565b6040516001600160a01b039091168152602001610151565b6101967f000000000000000000000000000000000000000000000000000000000000000081565b6101e86101e33660046110bc565b61035f565b604051908152602001610151565b60025461020a90600160a01b900460ff1681565b6040519015158152602001610151565b61016d6107aa565b6101e860045481565b61016d6102393660046110e5565b6107be565b6000546001600160a01b0316610196565b61026261025d366004611102565b61081e565b604051610151919061112c565b6101e860055481565b6101e8603281565b6101e860035481565b6101e861271081565b600254610196906001600160a01b031681565b61016d6102b336600461107d565b610d77565b61016d610db5565b6102c8610fd6565b6001600160a01b0381166103155760405162461bcd60e51b815260206004820152600f60248201526e496e76616c6964206164647265737360881b60448201526064015b60405180910390fd5b600280546001600160a01b0319166001600160a01b0383169081179091556040517fdffa4ea73ad53e19c92e33bc67703c135f946cdb1ef95048e4a187496c25072890600090a250565b6000610369611003565b600254600160a01b900460ff166103b45760405162461bcd60e51b815260206004820152600f60248201526e53616c65206e6f742061637469766560881b604482015260640161030c565b60405163c022c52360e01b81526000906001600160a01b037f0000000000000000000000000000000000000000000000000000000000000000169063c022c52390610403908690600401611192565b608060405180830381865afa158015610420573d6000803e3d6000fd5b505050506040513d601f19601f8201168201806040525081019061044491906111b6565b9050806040015181606001511061048d5760405162461bcd60e51b815260206004820152600d60248201526c151a595c881cdbdb19081bdd5d609a1b604482015260640161030c565b8051600061271061049f603284611240565b6104a99190611257565b905060006104b78284611279565b6040516323b872dd60e01b8152336004820152306024820152604481018590529091507f00000000000000000000000000000000000000000000000000000000000000006001600160a01b0316906323b872dd906064016020604051808303816000875af115801561052d573d6000803e3d6000fd5b505050506040513d601f19601f82011682018060405250810190610551919061128c565b61058f5760405162461bcd60e51b815260206004820152600f60248201526e151c985b9cd9995c8819985a5b1959608a1b604482015260640161030c565b82600360008282546105a191906112a9565b9250508190555081600460008282546105ba91906112a9565b9250508190555080600560008282546105d391906112a9565b909155505060025460405163a9059cbb60e01b81526001600160a01b039182166004820152602481018390527f00000000000000000000000000000000000000000000000000000000000000009091169063a9059cbb906044016020604051808303816000875af115801561064c573d6000803e3d6000fd5b505050506040513d601f19601f82011682018060405250810190610670919061128c565b6106bc5760405162461bcd60e51b815260206004820152601b60248201527f4469737472696275746f72207472616e73666572206661696c65640000000000604482015260640161030c565b604051630348ab1560e51b81526000906001600160a01b037f0000000000000000000000000000000000000000000000000000000000000000169063691562a09061070d9033908b906004016112bc565b6020604051808303816000875af115801561072c573d6000803e3d6000fd5b505050506040513d601f19601f8201168201806040525081019061075091906112d9565b905080336001600160a01b03167f34d247e2de158827f61d5b432b7a1a0a32ecb751b7b4899bbd897ab19302f234898760405161078e9291906112f2565b60405180910390a39450505050506107a560018055565b919050565b6107b2610fd6565b6107bc600061102d565b565b6107c6610fd6565b60028054821515600160a01b0260ff60a01b199091161790556040517fc75413bb803e9f5f8572b10a8262838386a1bc5db1743ff399db4f5c32f4691e9061081390831515815260200190565b60405180910390a150565b6060610828611003565b600254600160a01b900460ff166108735760405162461bcd60e51b815260206004820152600f60248201526e53616c65206e6f742061637469766560881b604482015260640161030c565b6000821180156108845750600a8211155b6108c35760405162461bcd60e51b815260206004820152601060248201526f496e76616c6964207175616e7469747960801b604482015260640161030c565b60405163c022c52360e01b81526000906001600160a01b037f0000000000000000000000000000000000000000000000000000000000000000169063c022c52390610912908790600401611192565b608060405180830381865afa15801561092f573d6000803e3d6000fd5b505050506040513d601f19601f8201168201806040525081019061095391906111b6565b9050806040015183826060015161096a91906112a9565b11156109ae5760405162461bcd60e51b8152602060048201526013602482015272496e73756666696369656e7420737570706c7960681b604482015260640161030c565b80516000906109be908590611240565b905060006127106109d0603284611240565b6109da9190611257565b905060006109e88284611279565b6040516323b872dd60e01b8152336004820152306024820152604481018590529091507f00000000000000000000000000000000000000000000000000000000000000006001600160a01b0316906323b872dd906064016020604051808303816000875af1158015610a5e573d6000803e3d6000fd5b505050506040513d601f19601f82011682018060405250810190610a82919061128c565b610ac05760405162461bcd60e51b815260206004820152600f60248201526e151c985b9cd9995c8819985a5b1959608a1b604482015260640161030c565b8260036000828254610ad291906112a9565b925050819055508160046000828254610aeb91906112a9565b925050819055508060056000828254610b0491906112a9565b909155505060025460405163a9059cbb60e01b81526001600160a01b039182166004820152602481018390527f00000000000000000000000000000000000000000000000000000000000000009091169063a9059cbb906044016020604051808303816000875af1158015610b7d573d6000803e3d6000fd5b505050506040513d601f19601f82011682018060405250810190610ba1919061128c565b610bed5760405162461bcd60e51b815260206004820152601b60248201527f4469737472696275746f72207472616e73666572206661696c65640000000000604482015260640161030c565b60008667ffffffffffffffff811115610c0857610c086111a0565b604051908082528060200260200182016040528015610c31578160200160208202803683370190505b50905060005b87811015610d6157604051630348ab1560e51b81526001600160a01b037f0000000000000000000000000000000000000000000000000000000000000000169063691562a090610c8d9033908d906004016112bc565b6020604051808303816000875af1158015610cac573d6000803e3d6000fd5b505050506040513d601f19601f82011682018060405250810190610cd091906112d9565b828281518110610ce257610ce261130d565b602002602001018181525050818181518110610d0057610d0061130d565b6020026020010151336001600160a01b03167f34d247e2de158827f61d5b432b7a1a0a32ecb751b7b4899bbd897ab19302f2348b8960000151604051610d479291906112f2565b60405180910390a380610d5981611323565b915050610c37565b50945050505050610d7160018055565b92915050565b610d7f610fd6565b6001600160a01b038116610da957604051631e4fbdf760e01b81526000600482015260240161030c565b610db28161102d565b50565b610dbd610fd6565b6040516370a0823160e01b81523060048201526000907f00000000000000000000000000000000000000000000000000000000000000006001600160a01b0316906370a0823190602401602060405180830381865afa158015610e24573d6000803e3d6000fd5b505050506040513d601f19601f82011682018060405250810190610e4891906112d9565b905060008111610e935760405162461bcd60e51b81526020600482015260166024820152754e6f20726576656e756520746f20776974686472617760501b604482015260640161030c565b7f00000000000000000000000000000000000000000000000000000000000000006001600160a01b031663a9059cbb610ed46000546001600160a01b031690565b6040516001600160e01b031960e084901b1681526001600160a01b039091166004820152602481018490526044016020604051808303816000875af1158015610f21573d6000803e3d6000fd5b505050506040513d601f19601f82011682018060405250810190610f45919061128c565b610f855760405162461bcd60e51b815260206004820152601160248201527015da5d1a191c985dd85b0819985a5b1959607a1b604482015260640161030c565b6000546001600160a01b03166001600160a01b03167ff7595c4fd7fa675e456dd9520ac8266c06d237d52900fc573bccc85b7c177c9e82604051610fcb91815260200190565b60405180910390a250565b6000546001600160a01b031633146107bc5760405163118cdaa760e01b815233600482015260240161030c565b60026001540361102657604051633ee5aeb560e01b815260040160405180910390fd5b6002600155565b600080546001600160a01b038381166001600160a01b0319831681178455604051919092169283917f8be0079c531659141344cd1fd0a4f28419497f9722a3daafe3b4186f6b6457e09190a35050565b60006020828403121561108f57600080fd5b81356001600160a01b03811681146110a657600080fd5b9392505050565b8035600381106107a557600080fd5b6000602082840312156110ce57600080fd5b6110a6826110ad565b8015158114610db257600080fd5b6000602082840312156110f757600080fd5b81356110a6816110d7565b6000806040838503121561111557600080fd5b61111e836110ad565b946020939093013593505050565b6020808252825182820181905260009190848201906040850190845b8181101561116457835183529284019291840191600101611148565b50909695505050505050565b6003811061118e57634e487b7160e01b600052602160045260246000fd5b9052565b60208101610d718284611170565b634e487b7160e01b600052604160045260246000fd5b6000608082840312156111c857600080fd5b6040516080810181811067ffffffffffffffff821117156111f957634e487b7160e01b600052604160045260246000fd5b8060405250825181526020830151602082015260408301516040820152606083015160608201528091505092915050565b634e487b7160e01b600052601160045260246000fd5b8082028115828204841417610d7157610d7161122a565b60008261127457634e487b7160e01b600052601260045260246000fd5b500490565b81810381811115610d7157610d7161122a565b60006020828403121561129e57600080fd5b81516110a6816110d7565b80820180821115610d7157610d7161122a565b6001600160a01b0383168152604081016110a66020830184611170565b6000602082840312156112eb57600080fd5b5051919050565b604081016113008285611170565b8260208301529392505050565b634e487b7160e01b600052603260045260246000fd5b6000600182016113355761133561122a565b506001019056fea2646970667358221220a0bb5fc8f616507f13e289aed2815c3f11158dec51efc6671cf495a28aae7aa364736f6c63430008140033",
  "linkReferences": {},
  "deployedLinkReferences": {}
}