{
  "_format": "hh-sol-artifact-1",
  "contractName": "MinerSale",
  "sourceName": "contracts/MinerSale.sol",
  "abi": [
    {
      "inputs": [
        {
          "internalType": "address",
          "name": "_fairToken",
          "type": "address"
        },
        {
          "internalType": "address",
          "name": "_fairMiner",
          "type": "address"
        },
        {
          "internalType": "address",
          "name": "_revenueDistributor",
          "type": "address"
        }
      ],
      "stateMutability": "nonpayable",
      "type": "constructor"
    },
    {
      "inputs": [],
      "name": "EnforcedPause",
      "type": "error"
    },
    {
      "inputs": [],
      "name": "ExpectedPause",
      "type": "error"
    },
    {
      "inputs": [
        {
          "internalType": "address",
          "name": "owner",
          "type": "address"
        }
      ],
      "name": "OwnableInvalidOwner",
      "type": "error"
    },
    {
      "inputs": [
        {
          "internalType": "address",
          "name": "account",
          "type": "address"
        }
      ],
      "name": "OwnableUnauthorizedAccount",
      "type": "error"
    },
    {
      "inputs": [],
      "name": "ReentrancyGuardReentrantCall",
      "type": "error"
    },
    {
      "anonymous": false,
      "inputs": [
        {
          "indexed": true,
          "internalType": "address",
          "name": "buyer",
          "type": "address"
        },
        {
          "indexed": true,
          "internalType": "uint256",
          "name": "tokenId",
          "type": "uint256"
        },
        {
          "indexed": false,
          "internalType": "enum FAIRMiner.MinerTier",
          "name": "tier",
          "type": "uint8"
        },
        {
          "indexed": false,
          "internalType": "uint256",
          "name": "price",
          "type": "uint256"
        }
      ],
      "name": "MinerPurchased",
      "type": "event"
    },
    {
      "anonymous": false,
      "inputs": [
        {
          "indexed": true,
          "internalType": "address",
          "name": "previousOwner",
          "type": "address"
        },
        {
          "indexed": true,
          "internalType": "address",
          "name": "newOwner",
          "type": "address"
        }
      ],
      "name": "OwnershipTransferred",
      "type": "event"
    },
    {
      "anonymous": false,
      "inputs": [
        {
          "indexed": false,
          "internalType": "address",
          "name": "account",
          "type": "address"
        }
      ],
      "name": "Paused",
      "type": "event"
    },
    {
      "anonymous": false,
      "inputs": [
        {
          "indexed": true,
          "internalType": "address",
          "name": "to",
          "type": "address"
        },
        {
          "indexed": false,
          "internalType": "uint256",
          "name": "amount",
          "type": "uint256"
        }
      ],
      "name": "ProtocolRevenueWithdrawn",
      "type": "event"
    },
    {
      "anonymous": false,
      "inputs": [
        {
          "indexed": true,
          "internalType": "address",
          "name": "distributor",
          "type": "address"
        }
      ],
      "name": "RevenueDistributorUpdated",
      "type": "event"
    },
    {
      "anonymous": false,
      "inputs": [
        {
          "indexed": false,
          "internalType": "bool",
          "name": "active",
          "type": "bool"
        }
      ],
      "name": "SaleStatusUpdated",
      "type": "event"
    },
    {
      "anonymous": false,
      "inputs": [
        {
          "indexed": true,
          "internalType": "enum FAIRMiner.MinerTier",
          "name": "tier",
          "type": "uint8"
        },
        {
          "indexed": false,
          "internalType": "uint256",
          "name": "newPrice",
          "type": "uint256"
        }
      ],
      "name": "TierPriceUpdated",
      "type": "event"
    },
    {
      "anonymous": false,
      "inputs": [
        {
          "indexed": false,
          "internalType": "address",
          "name": "account",
          "type": "address"
        }
      ],
      "name": "Unpaused",
      "type": "event"
    },
    {
      "inputs": [],
      "name": "BPS_DENOMINATOR",
      "outputs": [
        {
          "internalType": "uint256",
          "name": "",
          "type": "uint256"
        }
      ],
      "stateMutability": "view",
      "type": "function"
    },
    {
      "inputs": [],
      "name": "PROTOCOL_FEE_BPS",
      "outputs": [
        {
          "internalType": "uint256",
          "name": "",
          "type": "uint256"
        }
      ],
      "stateMutability": "view",
      "type": "function"
    },
    {
      "inputs": [],
      "name": "distributorRevenue",
      "outputs": [
        {
          "internalType": "uint256",
          "name": "",
          "type": "uint256"
        }
      ],
      "stateMutability": "view",
      "type": "function"
    },
    {
      "inputs": [],
      "name": "fairMiner",
      "outputs": [
        {
          "internalType": "contract FAIRMiner",
          "name": "",
          "type": "address"
        }
      ],
      "stateMutability": "view",
      "type": "function"
    },
    {
      "inputs": [],
      "name": "fairToken",
      "outputs": [
        {
          "internalType": "contract IERC20",
          "name": "",
          "type": "address"
        }
      ],
      "stateMutability": "view",
      "type": "function"
    },
    {
      "inputs": [],
      "name": "getSaleStats",
      "outputs": [
        {
          "internalType": "bool",
          "name": "active",
          "type": "bool"
        },
        {
          "internalType": "uint256",
          "name": "total",
          "type": "uint256"
        },
        {
          "internalType": "uint256",
          "name": "protocol",
          "type": "uint256"
        },
        {
          "internalType": "uint256",
          "name": "distributor",
          "type": "uint256"
        }
      ],
      "stateMutability": "view",
      "type": "function"
    },
    {
      "inputs": [
        {
          "internalType": "enum FAIRMiner.MinerTier",
          "name": "tier",
          "type": "uint8"
        }
      ],
      "name": "getTierPrice",
      "outputs": [
        {
          "internalType": "uint256",
          "name": "",
          "type": "uint256"
        }
      ],
      "stateMutability": "view",
      "type": "function"
    },
    {
      "inputs": [],
      "name": "owner",
      "outputs": [
        {
          "internalType": "address",
          "name": "",
          "type": "address"
        }
      ],
      "stateMutability": "view",
      "type": "function"
    },
    {
      "inputs": [],
      "name": "pause",
      "outputs": [],
      "stateMutability": "nonpayable",
      "type": "function"
    },
    {
      "inputs": [],
      "name": "paused",
      "outputs": [
        {
          "internalType": "bool",
          "name": "",
          "type": "bool"
        }
      ],
      "stateMutability": "view",
      "type": "function"
    },
    {
      "inputs": [],
      "name": "protocolRevenue",
      "outputs": [
        {
          "internalType": "uint256",
          "name": "",
          "type": "uint256"
        }
      ],
      "stateMutability": "view",
      "type": "function"
    },
    {
      "inputs": [
        {
          "internalType": "enum FAIRMiner.MinerTier",
          "name": "tier",
          "type": "uint8"
        }
      ],
      "name": "purchaseMiner",
      "outputs": [
        {
          "internalType": "uint256",
          "name": "",
          "type": "uint256"
        }
      ],
      "stateMutability": "nonpayable",
      "type": "function"
    },
    {
      "inputs": [
        {
          "internalType": "enum FAIRMiner.MinerTier",
          "name": "tier",
          "type": "uint8"
        },
        {
          "internalType": "uint256",
          "name": "quantity",
          "type": "uint256"
        }
      ],
      "name": "purchaseMiners",
      "outputs": [
        {
          "internalType": "uint256[]",
          "name": "",
          "type": "uint256[]"
        }
      ],
      "stateMutability": "nonpayable",
      "type": "function"
    },
    {
      "inputs": [],
      "name": "renounceOwnership",
      "outputs": [],
      "stateMutability": "nonpayable",
      "type": "function"
    },
    {
      "inputs": [],
      "name": "revenueDistributor",
      "outputs": [
        {
          "internalType": "address",
          "name": "",
          "type": "address"
        }
      ],
      "stateMutability": "view",
      "type": "function"
    },
    {
      "inputs": [],
      "name": "saleActive",
      "outputs": [
        {
          "internalType": "bool",
          "name": "",
          "type": "bool"
        }
      ],
      "stateMutability": "view",
      "type": "function"
    },
    {
      "inputs": [
        {
          "internalType": "address",
          "name": "_revenueDistributor",
          "type": "address"
        }
      ],
      "name": "setRevenueDistributor",
      "outputs": [],
      "stateMutability": "nonpayable",
      "type": "function"
    },
    {
      "inputs": [
        {
          "internalType": "bool",
          "name": "active",
          "type": "bool"
        }
      ],
      "name": "setSaleActive",
      "outputs": [],
      "stateMutability": "nonpayable",
      "type": "function"
    },
    {
      "inputs": [
        {
          "internalType": "enum FAIRMiner.MinerTier",
          "name": "tier",
          "type": "uint8"
        },
        {
          "internalType": "uint256",
          "name": "newPrice",
          "type": "uint256"
        }
      ],
      "name": "setTierPrice",
      "outputs": [],
      "stateMutability": "nonpayable",
      "type": "function"
    },
    {
      "inputs": [
        {
          "internalType": "enum FAIRMiner.MinerTier",
          "name": "",
          "type": "uint8"
        }
      ],
      "name": "tierPriceOverrides",
      "outputs": [
        {
          "internalType": "uint256",
          "name": "",
          "type": "uint256"
        }
      ],
      "stateMutability": "view",
      "type": "function"
    },
    {
      "inputs": [],
      "name": "totalRevenue",
      "outputs": [
        {
          "internalType": "uint256",
          "name": "",
          "type": "uint256"
        }
      ],
      "stateMutability": "view",
      "type": "function"
    },
    {
      "inputs": [
        {
          "internalType": "address",
          "name": "newOwner",
          "type": "address"
        }
      ],
      "name": "transferOwnership",
      "outputs": [],
      "stateMutability": "nonpayable",
      "type": "function"
    },
    {
      "inputs": [],
      "name": "unpause",
      "outputs": [],
      "stateMutability": "nonpayable",
      "type": "function"
    },
    {
      "inputs": [],
      "name": "withdrawProtocolRevenue",
      "outputs": [],
      "stateMutability": "nonpayable",
      "type": "function"
    }
  ],
  "bytecode": "0x60c06040523480156200001157600080fd5b5060405162001a9038038062001a9083398101604081905262000034916200022a565b33806200005c57604051631e4fbdf760e01b8152600060048201526024015b60405180910390fd5b6200006781620001bd565b50600180556001600160a01b038316620000c45760405162461bcd60e51b815260206004820152601560248201527f496e76616c696420746f6b656e20616464726573730000000000000000000000604482015260640162000053565b6001600160a01b0382166200011c5760405162461bcd60e51b815260206004820152601560248201527f496e76616c6964206d696e657220616464726573730000000000000000000000604482015260640162000053565b6001600160a01b038116620001745760405162461bcd60e51b815260206004820152601b60248201527f496e76616c6964206469737472696275746f7220616464726573730000000000604482015260640162000053565b6001600160a01b0392831660805290821660a0526002805460ff60a81b19929093166101000291909116610100600160b01b031990921691909117600160a81b17905562000274565b600080546001600160a01b038381166001600160a01b0319831681178455604051919092169283917f8be0079c531659141344cd1fd0a4f28419497f9722a3daafe3b4186f6b6457e09190a35050565b80516001600160a01b03811681146200022557600080fd5b919050565b6000806000606084860312156200024057600080fd5b6200024b846200020d565b92506200025b602085016200020d565b91506200026b604085016200020d565b90509250925092565b60805160a0516117a9620002e7600039600081816101b6015281816105ea015281816106df015281816109f601528181610c130152610fa3015260008181610210015281816107f80152818161092301528181610d4901528181610e740152818161112001526111e001526117a96000f3fe608060405234801561001057600080fd5b50600436106101585760003560e01c8063841718a6116100c3578063bf2d9e0b1161007c578063bf2d9e0b146102ff578063e1a4521814610308578063eae0a48814610311578063ed0330c514610329578063f2fde38b14610349578063fd22b17c1461035c57600080fd5b8063841718a6146102a25780638456cb59146102b55780638da5cb5b146102bd578063929abd61146102ce578063a5382808146102ee578063be378228146102f757600080fd5b80635586402d116101155780635586402d146102325780635adc2b34146102535780635c975abb1461026657806368428a1b1461027d578063715018a6146102915780637af3816c1461029957600080fd5b8063136ea6741461015d578063179f9e651461019c5780631df38139146101b15780633f4ba83a146101f05780634a5c6f8c146101f85780635202581d1461020b575b600080fd5b600254600454600554600654600160a81b90930460ff169260408051941515855260208501939093529183015260608201526080015b60405180910390f35b6101af6101aa36600461149e565b610364565b005b6101d87f000000000000000000000000000000000000000000000000000000000000000081565b6040516001600160a01b039091168152602001610193565b6101af61040b565b6101af6102063660046114dd565b61041d565b6101d87f000000000000000000000000000000000000000000000000000000000000000081565b610245610240366004611507565b610589565b604051908152602001610193565b610245610261366004611507565b610668565b60025460ff165b6040519015158152602001610193565b60025461026d90600160a81b900460ff1681565b6101af610aca565b61024560055481565b6101af6102b0366004611530565b610adc565b6101af610b3c565b6000546001600160a01b03166101d8565b6102e16102dc3660046114dd565b610b4c565b604051610193919061154d565b61024560065481565b610245603281565b61024560045481565b61024561271081565b6002546101d89061010090046001600160a01b031681565b610245610337366004611507565b60036020526000908152604090205481565b6101af61035736600461149e565b6110c2565b6101af611100565b61036c611321565b6001600160a01b0381166103b95760405162461bcd60e51b815260206004820152600f60248201526e496e76616c6964206164647265737360881b60448201526064015b60405180910390fd5b60028054610100600160a81b0319166101006001600160a01b038416908102919091179091556040517fdffa4ea73ad53e19c92e33bc67703c135f946cdb1ef95048e4a187496c25072890600090a250565b610413611321565b61041b61134e565b565b610425611321565b600081116104655760405162461bcd60e51b815260206004820152600d60248201526c496e76616c696420707269636560981b60448201526064016103b0565b600061047083610589565b9050801561050657600060646104878360966115a7565b61049191906115be565b9050600060646104a28460326115a7565b6104ac91906115be565b90508084101580156104be5750818411155b6105035760405162461bcd60e51b81526020600482015260166024820152755072696365206368616e676520746f6f206c6172676560501b60448201526064016103b0565b50505b816003600085600281111561051d5761051d6115e0565b600281111561052e5761052e6115e0565b8152602081019190915260400160002055826002811115610551576105516115e0565b6040518381527f9b2aeac57e3bc4cc557619887fe04fb4a5d6a7198dc9d52d71c288115f3bf7c79060200160405180910390a2505050565b600080600360008460028111156105a2576105a26115e0565b60028111156105b3576105b36115e0565b815260200190815260200160002054905060008111156105d35792915050565b60405163c022c52360e01b81526001600160a01b037f0000000000000000000000000000000000000000000000000000000000000000169063c022c5239061061f908690600401611618565b608060405180830381865afa15801561063c573d6000803e3d6000fd5b505050506040513d601f19601f82011682018060405250810190610660919061163c565b519392505050565b60006106726113a0565b61067a6113ca565b600254600160a81b900460ff166106c55760405162461bcd60e51b815260206004820152600f60248201526e53616c65206e6f742061637469766560881b60448201526064016103b0565b60405163c022c52360e01b81526000906001600160a01b037f0000000000000000000000000000000000000000000000000000000000000000169063c022c52390610714908690600401611618565b608060405180830381865afa158015610731573d6000803e3d6000fd5b505050506040513d601f19601f82011682018060405250810190610755919061163c565b9050806040015181606001511061079e5760405162461bcd60e51b815260206004820152600d60248201526c151a595c881cdbdb19081bdd5d609a1b60448201526064016103b0565b60006107a984610589565b905060006127106107bb6032846115a7565b6107c591906115be565b905060006107d382846116b0565b6040516323b872dd60e01b8152336004820152306024820152604481018590529091507f00000000000000000000000000000000000000000000000000000000000000006001600160a01b0316906323b872dd906064016020604051808303816000875af1158015610849573d6000803e3d6000fd5b505050506040513d601f19601f8201168201806040525081019061086d91906116c3565b6108ab5760405162461bcd60e51b815260206004820152600f60248201526e151c985b9cd9995c8819985a5b1959608a1b60448201526064016103b0565b82600460008282546108bd91906116e0565b9250508190555081600560008282546108d691906116e0565b9250508190555080600660008282546108ef91906116e0565b909155505060025460405163a9059cbb60e01b81526101009091046001600160a01b039081166004830152602482018390527f0000000000000000000000000000000000000000000000000000000000000000169063a9059cbb906044016020604051808303816000875af115801561096c573d6000803e3d6000fd5b505050506040513d601f19601f8201168201806040525081019061099091906116c3565b6109dc5760405162461bcd60e51b815260206004820152601b60248201527f4469737472696275746f72207472616e73666572206661696c6564000000000060448201526064016103b0565b604051630348ab1560e51b81526000906001600160a01b037f0000000000000000000000000000000000000000000000000000000000000000169063691562a090610a2d9033908b906004016116f3565b6020604051808303816000875af1158015610a4c573d6000803e3d6000fd5b505050506040513d601f19601f82011682018060405250810190610a709190611710565b905080336001600160a01b03167f34d247e2de158827f61d5b432b7a1a0a32ecb751b7b4899bbd897ab19302f2348987604051610aae929190611729565b60405180910390a3945050505050610ac560018055565b919050565b610ad2611321565b61041b60006113ee565b610ae4611321565b60028054821515600160a81b0260ff60a81b199091161790556040517fc75413bb803e9f5f8572b10a8262838386a1bc5db1743ff399db4f5c32f4691e90610b3190831515815260200190565b60405180910390a150565b610b44611321565b61041b61143e565b6060610b566113a0565b610b5e6113ca565b600254600160a81b900460ff16610ba95760405162461bcd60e51b815260206004820152600f60248201526e53616c65206e6f742061637469766560881b60448201526064016103b0565b600082118015610bba5750600a8211155b610bf95760405162461bcd60e51b815260206004820152601060248201526f496e76616c6964207175616e7469747960801b60448201526064016103b0565b60405163c022c52360e01b81526000906001600160a01b037f0000000000000000000000000000000000000000000000000000000000000000169063c022c52390610c48908790600401611618565b608060405180830381865afa158015610c65573d6000803e3d6000fd5b505050506040513d601f19601f82011682018060405250810190610c89919061163c565b90508060400151838260600151610ca091906116e0565b1115610ce45760405162461bcd60e51b8152602060048201526013602482015272496e73756666696369656e7420737570706c7960681b60448201526064016103b0565b600083610cf086610589565b610cfa91906115a7565b90506000612710610d0c6032846115a7565b610d1691906115be565b90506000610d2482846116b0565b6040516323b872dd60e01b8152336004820152306024820152604481018590529091507f00000000000000000000000000000000000000000000000000000000000000006001600160a01b0316906323b872dd906064016020604051808303816000875af1158015610d9a573d6000803e3d6000fd5b505050506040513d601f19601f82011682018060405250810190610dbe91906116c3565b610dfc5760405162461bcd60e51b815260206004820152600f60248201526e151c985b9cd9995c8819985a5b1959608a1b60448201526064016103b0565b8260046000828254610e0e91906116e0565b925050819055508160056000828254610e2791906116e0565b925050819055508060066000828254610e4091906116e0565b909155505060025460405163a9059cbb60e01b81526101009091046001600160a01b039081166004830152602482018390527f0000000000000000000000000000000000000000000000000000000000000000169063a9059cbb906044016020604051808303816000875af1158015610ebd573d6000803e3d6000fd5b505050506040513d601f19601f82011682018060405250810190610ee191906116c3565b610f2d5760405162461bcd60e51b815260206004820152601b60248201527f4469737472696275746f72207472616e73666572206661696c6564000000000060448201526064016103b0565b60008667ffffffffffffffff811115610f4857610f48611626565b604051908082528060200260200182016040528015610f71578160200160208202803683370190505b5090506000610f7f89610589565b905060005b888110156110aa57604051630348ab1560e51b81526001600160a01b037f0000000000000000000000000000000000000000000000000000000000000000169063691562a090610fda9033908e906004016116f3565b6020604051808303816000875af1158015610ff9573d6000803e3d6000fd5b505050506040513d601f19601f8201168201806040525081019061101d9190611710565b83828151811061102f5761102f611744565b60200260200101818152505082818151811061104d5761104d611744565b6020026020010151336001600160a01b03167f34d247e2de158827f61d5b432b7a1a0a32ecb751b7b4899bbd897ab19302f2348c85604051611090929190611729565b60405180910390a3806110a28161175a565b915050610f84565b5090955050505050506110bc60018055565b92915050565b6110ca611321565b6001600160a01b0381166110f457604051631e4fbdf760e01b8152600060048201526024016103b0565b6110fd816113ee565b50565b611108611321565b6040516370a0823160e01b81523060048201526000907f00000000000000000000000000000000000000000000000000000000000000006001600160a01b0316906370a0823190602401602060405180830381865afa15801561116f573d6000803e3d6000fd5b505050506040513d601f19601f820116820180604052508101906111939190611710565b9050600081116111de5760405162461bcd60e51b81526020600482015260166024820152754e6f20726576656e756520746f20776974686472617760501b60448201526064016103b0565b7f00000000000000000000000000000000000000000000000000000000000000006001600160a01b031663a9059cbb61121f6000546001600160a01b031690565b6040516001600160e01b031960e084901b1681526001600160a01b039091166004820152602481018490526044016020604051808303816000875af115801561126c573d6000803e3d6000fd5b505050506040513d601f19601f8201168201806040525081019061129091906116c3565b6112d05760405162461bcd60e51b815260206004820152601160248201527015da5d1a191c985dd85b0819985a5b1959607a1b60448201526064016103b0565b6000546001600160a01b03166001600160a01b03167ff7595c4fd7fa675e456dd9520ac8266c06d237d52900fc573bccc85b7c177c9e8260405161131691815260200190565b60405180910390a250565b6000546001600160a01b0316331461041b5760405163118cdaa760e01b81523360048201526024016103b0565b61135661147b565b6002805460ff191690557f5db9ee0a495bf2e6ff9c91a7834c1ba4fdd244a5e8aa4e537bd38aeae4b073aa335b6040516001600160a01b03909116815260200160405180910390a1565b6002600154036113c357604051633ee5aeb560e01b815260040160405180910390fd5b6002600155565b60025460ff161561041b5760405163d93c066560e01b815260040160405180910390fd5b600080546001600160a01b038381166001600160a01b0319831681178455604051919092169283917f8be0079c531659141344cd1fd0a4f28419497f9722a3daafe3b4186f6b6457e09190a35050565b6114466113ca565b6002805460ff191660011790557f62e78cea01bee320cd4e420270b5ea74000d11b0c9f74754ebdbfc544b05a2586113833390565b60025460ff1661041b57604051638dfc202b60e01b815260040160405180910390fd5b6000602082840312156114b057600080fd5b81356001600160a01b03811681146114c757600080fd5b9392505050565b803560038110610ac557600080fd5b600080604083850312156114f057600080fd5b6114f9836114ce565b946020939093013593505050565b60006020828403121561151957600080fd5b6114c7826114ce565b80151581146110fd57600080fd5b60006020828403121561154257600080fd5b81356114c781611522565b6020808252825182820181905260009190848201906040850190845b8181101561158557835183529284019291840191600101611569565b50909695505050505050565b634e487b7160e01b600052601160045260246000fd5b80820281158282048414176110bc576110bc611591565b6000826115db57634e487b7160e01b600052601260045260246000fd5b500490565b634e487b7160e01b600052602160045260246000fd5b6003811061161457634e487b7160e01b600052602160045260246000fd5b9052565b602081016110bc82846115f6565b634e487b7160e01b600052604160045260246000fd5b60006080828403121561164e57600080fd5b6040516080810181811067ffffffffffffffff8211171561167f57634e487b7160e01b600052604160045260246000fd5b8060405250825181526020830151602082015260408301516040820152606083015160608201528091505092915050565b818103818111156110bc576110bc611591565b6000602082840312156116d557600080fd5b81516114c781611522565b808201808211156110bc576110bc611591565b6001600160a01b0383168152604081016114c760208301846115f6565b60006020828403121561172257600080fd5b5051919050565b6040810161173782856115f6565b8260208301529392505050565b634e487b7160e01b600052603260045260246000fd5b60006001820161176c5761176c611591565b506001019056fea2646970667358221220afb3e7a2ca15eb9f50ad6b4ca6e73fe1671ba0c4edd9b069ffd40caa7156a6bd64736f6c63430008140033",
  "linkReferences": {},
  "deployedLinkReferences": {}
}