{
  "_format": "hh-sol-artifact-1",
  "contractName": "RevenueDistributor",
  "sourceName": "contracts/RevenueDistributor.sol",
  "abi": [
    {
      "inputs": [
        {
          "internalType": "address",
          "name": "_fairToken",
          "type": "address"
        }
      ],
      "stateMutability": "nonpayable",
      "type": "constructor"
    },
    {
      "inputs": [],
      "name": "EnforcedPause",
      "type": "error"
    },
    {
      "inputs": [],
      "name": "ExpectedPause",
      "type": "error"
    },
    {
      "inputs": [
        {
          "internalType": "address",
          "name": "owner",
          "type": "address"
        }
      ],
      "name": "OwnableInvalidOwner",
      "type": "error"
    },
    {
      "inputs": [
        {
          "internalType": "address",
          "name": "account",
          "type": "address"
        }
      ],
      "name": "OwnableUnauthorizedAccount",
      "type": "error"
    },
    {
      "inputs": [],
      "name": "ReentrancyGuardReentrantCall",
      "type": "error"
    },
    {
      "anonymous": false,
      "inputs": [
        {
          "indexed": false,
          "internalType": "uint256",
          "name": "amount",
          "type": "uint256"
        }
      ],
      "name": "EmergencyWithdrawExecuted",
      "type": "event"
    },
    {
      "anonymous": false,
      "inputs": [
        {
          "indexed": false,
          "internalType": "uint256",
          "name": "executeTime",
          "type": "uint256"
        }
      ],
      "name": "EmergencyWithdrawInitiated",
      "type": "event"
    },
    {
      "anonymous": false,
      "inputs": [
        {
          "indexed": true,
          "internalType": "address",
          "name": "previousOwner",
          "type": "address"
        },
        {
          "indexed": true,
          "internalType": "address",
          "name": "newOwner",
          "type": "address"
        }
      ],
      "name": "OwnershipTransferred",
      "type": "event"
    },
    {
      "anonymous": false,
      "inputs": [
        {
          "indexed": false,
          "internalType": "address",
          "name": "account",
          "type": "address"
        }
      ],
      "name": "Paused",
      "type": "event"
    },
    {
      "anonymous": false,
      "inputs": [
        {
          "indexed": false,
          "internalType": "uint256",
          "name": "amount",
          "type": "uint256"
        },
        {
          "indexed": false,
          "internalType": "uint256",
          "name": "newRewardPerToken",
          "type": "uint256"
        }
      ],
      "name": "RevenueReceived",
      "type": "event"
    },
    {
      "anonymous": false,
      "inputs": [
        {
          "indexed": true,
          "internalType": "address",
          "name": "user",
          "type": "address"
        },
        {
          "indexed": false,
          "internalType": "uint256",
          "name": "amount",
          "type": "uint256"
        }
      ],
      "name": "RewardsClaimed",
      "type": "event"
    },
    {
      "anonymous": false,
      "inputs": [
        {
          "indexed": false,
          "internalType": "uint256",
          "name": "totalSupply",
          "type": "uint256"
        }
      ],
      "name": "SnapshotUpdated",
      "type": "event"
    },
    {
      "anonymous": false,
      "inputs": [
        {
          "indexed": false,
          "internalType": "address",
          "name": "account",
          "type": "address"
        }
      ],
      "name": "Unpaused",
      "type": "event"
    },
    {
      "inputs": [],
      "name": "EMERGENCY_DELAY",
      "outputs": [
        {
          "internalType": "uint256",
          "name": "",
          "type": "uint256"
        }
      ],
      "stateMutability": "view",
      "type": "function"
    },
    {
      "inputs": [],
      "name": "cancelEmergencyWithdraw",
      "outputs": [],
      "stateMutability": "nonpayable",
      "type": "function"
    },
    {
      "inputs": [],
      "name": "claimRewards",
      "outputs": [],
      "stateMutability": "nonpayable",
      "type": "function"
    },
    {
      "inputs": [
        {
          "internalType": "address",
          "name": "account",
          "type": "address"
        }
      ],
      "name": "earned",
      "outputs": [
        {
          "internalType": "uint256",
          "name": "",
          "type": "uint256"
        }
      ],
      "stateMutability": "view",
      "type": "function"
    },
    {
      "inputs": [],
      "name": "emergencyWithdraw",
      "outputs": [],
      "stateMutability": "nonpayable",
      "type": "function"
    },
    {
      "inputs": [],
      "name": "emergencyWithdrawTime",
      "outputs": [
        {
          "internalType": "uint256",
          "name": "",
          "type": "uint256"
        }
      ],
      "stateMutability": "view",
      "type": "function"
    },
    {
      "inputs": [],
      "name": "fairToken",
      "outputs": [
        {
          "internalType": "contract IERC20",
          "name": "",
          "type": "address"
        }
      ],
      "stateMutability": "view",
      "type": "function"
    },
    {
      "inputs": [
        {
          "internalType": "address",
          "name": "user",
          "type": "address"
        }
      ],
      "name": "getClaimableRewards",
      "outputs": [
        {
          "internalType": "uint256",
          "name": "",
          "type": "uint256"
        }
      ],
      "stateMutability": "view",
      "type": "function"
    },
    {
      "inputs": [],
      "name": "getDistributionStats",
      "outputs": [
        {
          "internalType": "uint256",
          "name": "total",
          "type": "uint256"
        },
        {
          "internalType": "uint256",
          "name": "claimed",
          "type": "uint256"
        },
        {
          "internalType": "uint256",
          "name": "available",
          "type": "uint256"
        },
        {
          "internalType": "uint256",
          "name": "rewardPerTokenCurrent",
          "type": "uint256"
        }
      ],
      "stateMutability": "view",
      "type": "function"
    },
    {
      "inputs": [],
      "name": "initiateEmergencyWithdraw",
      "outputs": [],
      "stateMutability": "nonpayable",
      "type": "function"
    },
    {
      "inputs": [],
      "name": "lastUpdateRevenue",
      "outputs": [
        {
          "internalType": "uint256",
          "name": "",
          "type": "uint256"
        }
      ],
      "stateMutability": "view",
      "type": "function"
    },
    {
      "inputs": [],
      "name": "owner",
      "outputs": [
        {
          "internalType": "address",
          "name": "",
          "type": "address"
        }
      ],
      "stateMutability": "view",
      "type": "function"
    },
    {
      "inputs": [],
      "name": "pause",
      "outputs": [],
      "stateMutability": "nonpayable",
      "type": "function"
    },
    {
      "inputs": [],
      "name": "paused",
      "outputs": [
        {
          "internalType": "bool",
          "name": "",
          "type": "bool"
        }
      ],
      "stateMutability": "view",
      "type": "function"
    },
    {
      "inputs": [
        {
          "internalType": "uint256",
          "name": "amount",
          "type": "uint256"
        }
      ],
      "name": "receiveRevenue",
      "outputs": [],
      "stateMutability": "nonpayable",
      "type": "function"
    },
    {
      "inputs": [],
      "name": "renounceOwnership",
      "outputs": [],
      "stateMutability": "nonpayable",
      "type": "function"
    },
    {
      "inputs": [],
      "name": "rewardPerToken",
      "outputs": [
        {
          "internalType": "uint256",
          "name": "",
          "type": "uint256"
        }
      ],
      "stateMutability": "view",
      "type": "function"
    },
    {
      "inputs": [],
      "name": "rewardPerTokenStored",
      "outputs": [
        {
          "internalType": "uint256",
          "name": "",
          "type": "uint256"
        }
      ],
      "stateMutability": "view",
      "type": "function"
    },
    {
      "inputs": [
        {
          "internalType": "address",
          "name": "",
          "type": "address"
        }
      ],
      "name": "rewards",
      "outputs": [
        {
          "internalType": "uint256",
          "name": "",
          "type": "uint256"
        }
      ],
      "stateMutability": "view",
      "type": "function"
    },
    {
      "inputs": [],
      "name": "totalClaimed",
      "outputs": [
        {
          "internalType": "uint256",
          "name": "",
          "type": "uint256"
        }
      ],
      "stateMutability": "view",
      "type": "function"
    },
    {
      "inputs": [],
      "name": "totalRevenue",
      "outputs": [
        {
          "internalType": "uint256",
          "name": "",
          "type": "uint256"
        }
      ],
      "stateMutability": "view",
      "type": "function"
    },
    {
      "inputs": [],
      "name": "totalSupplySnapshot",
      "outputs": [
        {
          "internalType": "uint256",
          "name": "",
          "type": "uint256"
        }
      ],
      "stateMutability": "view",
      "type": "function"
    },
    {
      "inputs": [
        {
          "internalType": "address",
          "name": "newOwner",
          "type": "address"
        }
      ],
      "name": "transferOwnership",
      "outputs": [],
      "stateMutability": "nonpayable",
      "type": "function"
    },
    {
      "inputs": [],
      "name": "unpause",
      "outputs": [],
      "stateMutability": "nonpayable",
      "type": "function"
    },
    {
      "inputs": [],
      "name": "updateSnapshot",
      "outputs": [],
      "stateMutability": "nonpayable",
      "type": "function"
    },
    {
      "inputs": [
        {
          "internalType": "address",
          "name": "",
          "type": "address"
        }
      ],
      "name": "userRewardPerTokenPaid",
      "outputs": [
        {
          "internalType": "uint256",
          "name": "",
          "type": "uint256"
        }
      ],
      "stateMutability": "view",
      "type": "function"
    }
  ],
  "bytecode": "0x60a060405234801561001057600080fd5b506040516111a93803806111a983398101604081905261002f9161012b565b338061005657604051631e4fbdf760e01b8152600060048201526024015b60405180910390fd5b61005f816100db565b50600180556001600160a01b0381166100ba5760405162461bcd60e51b815260206004820152601560248201527f496e76616c696420746f6b656e20616464726573730000000000000000000000604482015260640161004d565b6001600160a01b03166080526b033b2e3c9fd0803ce800000060095561015b565b600080546001600160a01b038381166001600160a01b0319831681178455604051919092169283917f8be0079c531659141344cd1fd0a4f28419497f9722a3daafe3b4186f6b6457e09190a35050565b60006020828403121561013d57600080fd5b81516001600160a01b038116811461015457600080fd5b9392505050565b6080516110096101a0600039600081816102330152818161036d0152818161047a01528181610619015281816107d001528181610b520152610c0601526110096000f3fe608060405234801561001057600080fd5b506004361061018d5760003560e01c806382944e2d116100de578063bf2d9e0b11610097578063db2e21bc11610071578063db2e21bc1461031c578063de9b948814610324578063df136d651461032d578063f2fde38b1461033657600080fd5b8063bf2d9e0b14610302578063cd3daf9d1461030b578063d54ad2a11461031357600080fd5b806382944e2d146102a45780638456cb59146102ae5780638b876347146102b65780638da5cb5b146102d6578063ac856cea146102e7578063bd4ebf37146102ef57600080fd5b80633f4ba83a1161014b578063683131c911610125578063683131c914610283578063692404261461028b578063715018a61461029357806378efe5391461029b57600080fd5b80633f4ba83a146102265780635202581d1461022e5780635c975abb1461026d57600080fd5b80628cc262146101925780630700037d146101b857806324b97c46146101d8578063264ab45714610200578063308e401e14610209578063372500ab1461021c575b600080fd5b6101a56101a0366004610eda565b610349565b6040519081526020015b60405180910390f35b6101a56101c6366004610eda565b60086020526000908152604090205481565b6101e0610452565b6040805194855260208501939093529183015260608201526080016101af565b6101a560045481565b6101a5610217366004610eda565b610505565b610224610516565b005b61022461070e565b6102557f000000000000000000000000000000000000000000000000000000000000000081565b6040516001600160a01b0390911681526020016101af565b60025460ff1660405190151581526020016101af565b61022461071e565b61022461076f565b61022461088c565b6101a560095481565b6101a562093a8081565b61022461089e565b6101a56102c4366004610eda565b60076020526000908152604090205481565b6000546001600160a01b0316610255565b6102246108ae565b6102246102fd366004610f0a565b61094c565b6101a560055481565b6101a5610a42565b6101a560065481565b610224610a9c565b6101a5600a5481565b6101a560035481565b610224610344366004610eda565b610d24565b6040516370a0823160e01b81526001600160a01b03828116600483015260009182917f000000000000000000000000000000000000000000000000000000000000000016906370a0823190602401602060405180830381865afa1580156103b4573d6000803e3d6000fd5b505050506040513d601f19601f820116820180604052508101906103d89190610f23565b6001600160a01b038416600090815260076020526040812054919250906103fd610a42565b6104079190610f52565b6001600160a01b038516600090815260086020526040902054909150670de0b6b3a76400006104368385610f65565b6104409190610f7c565b61044a9190610f9e565b949350505050565b6040516370a0823160e01b815230600482015260009081908190819081906001600160a01b037f000000000000000000000000000000000000000000000000000000000000000016906370a0823190602401602060405180830381865afa1580156104c1573d6000803e3d6000fd5b505050506040513d601f19601f820116820180604052508101906104e59190610f23565b9050600554600654826104f6610a42565b94509450945094505090919293565b600061051082610349565b92915050565b61051e610d62565b610526610d8c565b3361052f610a42565b6003556005546004556001600160a01b0381161561057c5761055081610349565b6001600160a01b0382166000908152600860209081526040808320939093556003546007909152919020555b33600090815260086020526040902054806105d45760405162461bcd60e51b81526020600482015260136024820152724e6f207265776172647320746f20636c61696d60681b60448201526064015b60405180910390fd5b336000908152600860205260408120819055600680548392906105f8908490610f9e565b909155505060405163a9059cbb60e01b8152336004820152602481018290527f00000000000000000000000000000000000000000000000000000000000000006001600160a01b03169063a9059cbb906044016020604051808303816000875af115801561066a573d6000803e3d6000fd5b505050506040513d601f19601f8201168201806040525081019061068e9190610fb1565b6106cc5760405162461bcd60e51b815260206004820152600f60248201526e151c985b9cd9995c8819985a5b1959608a1b60448201526064016105cb565b60405181815233907ffc30cddea38e2bf4d6ea7d3f9ed3b6ad7f176419f4963bd81318067a4aee73fe9060200160405180910390a2505061070c60018055565b565b610716610db0565b61070c610ddd565b610726610db0565b6000600a54116107685760405162461bcd60e51b815260206004820152600d60248201526c139bdd081a5b9a5d1a585d1959609a1b60448201526064016105cb565b6000600a55565b610777610db0565b6000610781610a42565b6003556005546004556001600160a01b038116156107ce576107a281610349565b6001600160a01b0382166000908152600860209081526040808320939093556003546007909152919020555b7f00000000000000000000000000000000000000000000000000000000000000006001600160a01b03166318160ddd6040518163ffffffff1660e01b8152600401602060405180830381865afa15801561082c573d6000803e3d6000fd5b505050506040513d601f19601f820116820180604052508101906108509190610f23565b60098190556040519081527f8b9d81a6025b853920fb6b3a2cadb7c1b3d2f528f5e037cf38567004b991957f906020015b60405180910390a150565b610894610db0565b61070c6000610e2a565b6108a6610db0565b61070c610e7a565b6108b6610db0565b6108be610eb7565b600a54156109025760405162461bcd60e51b8152602060048201526011602482015270105b1c9958591e481a5b9a5d1a585d1959607a1b60448201526064016105cb565b42600a8190557f3cdaaaa0889822285645e1c79bcbd834c5dd93816b66671ab5a743ac0c53358e906109389062093a8090610f9e565b6040519081526020015b60405180910390a1565b6000610956610a42565b6003556005546004556001600160a01b038116156109a35761097781610349565b6001600160a01b0382166000908152600860209081526040808320939093556003546007909152919020555b600082116109e45760405162461bcd60e51b815260206004820152600e60248201526d125b9d985b1a5908185b5bdd5b9d60921b60448201526064016105cb565b81600560008282546109f69190610f9e565b909155507ff213ae9678e29ddf71cfd6bb58204207ac2f5a37f62a198ca6bc86737f015868905082610a26610a42565b6040805192835260208301919091520160405180910390a15050565b6000600954600003610a55575060035490565b6000600454600554610a679190610f52565b600954909150610a7f82670de0b6b3a7640000610f65565b610a899190610f7c565b600354610a969190610f9e565b91505090565b610aa4610db0565b610aac610eb7565b6000600a5411610aee5760405162461bcd60e51b815260206004820152600d60248201526c139bdd081a5b9a5d1a585d1959609a1b60448201526064016105cb565b62093a80600a54610aff9190610f9e565b421015610b3a5760405162461bcd60e51b8152602060048201526009602482015268546f6f206561726c7960b81b60448201526064016105cb565b6040516370a0823160e01b81523060048201526000907f00000000000000000000000000000000000000000000000000000000000000006001600160a01b0316906370a0823190602401602060405180830381865afa158015610ba1573d6000803e3d6000fd5b505050506040513d601f19601f82011682018060405250810190610bc59190610f23565b905060008111610c045760405162461bcd60e51b815260206004820152600a6024820152694e6f2062616c616e636560b01b60448201526064016105cb565b7f00000000000000000000000000000000000000000000000000000000000000006001600160a01b031663a9059cbb610c456000546001600160a01b031690565b6040516001600160e01b031960e084901b1681526001600160a01b039091166004820152602481018490526044016020604051808303816000875af1158015610c92573d6000803e3d6000fd5b505050506040513d601f19601f82011682018060405250810190610cb69190610fb1565b610cf45760405162461bcd60e51b815260206004820152600f60248201526e151c985b9cd9995c8819985a5b1959608a1b60448201526064016105cb565b6040518181527fa7d096069a26edbff974ac62b79d901783aa4bd4243483de31bf3ac923e88e5990602001610881565b610d2c610db0565b6001600160a01b038116610d5657604051631e4fbdf760e01b8152600060048201526024016105cb565b610d5f81610e2a565b50565b600260015403610d8557604051633ee5aeb560e01b815260040160405180910390fd5b6002600155565b60025460ff161561070c5760405163d93c066560e01b815260040160405180910390fd5b6000546001600160a01b0316331461070c5760405163118cdaa760e01b81523360048201526024016105cb565b610de5610eb7565b6002805460ff191690557f5db9ee0a495bf2e6ff9c91a7834c1ba4fdd244a5e8aa4e537bd38aeae4b073aa335b6040516001600160a01b039091168152602001610942565b600080546001600160a01b038381166001600160a01b0319831681178455604051919092169283917f8be0079c531659141344cd1fd0a4f28419497f9722a3daafe3b4186f6b6457e09190a35050565b610e82610d8c565b6002805460ff191660011790557f62e78cea01bee320cd4e420270b5ea74000d11b0c9f74754ebdbfc544b05a258610e123390565b60025460ff1661070c57604051638dfc202b60e01b815260040160405180910390fd5b600060208284031215610eec57600080fd5b81356001600160a01b0381168114610f0357600080fd5b9392505050565b600060208284031215610f1c57600080fd5b5035919050565b600060208284031215610f3557600080fd5b5051919050565b634e487b7160e01b600052601160045260246000fd5b8181038181111561051057610510610f3c565b808202811582820484141761051057610510610f3c565b600082610f9957634e487b7160e01b600052601260045260246000fd5b500490565b8082018082111561051057610510610f3c565b600060208284031215610fc357600080fd5b81518015158114610f0357600080fdfea2646970667358221220eccf8e4b0351dcc02d9a1a2464fcb3550c6af5d05e6477366b20a6807f10635764736f6c63430008140033",
  "linkReferences": {},
  "deployedLinkReferences": {}
}