{
  "_format": "hh-sol-artifact-1",
  "contractName": "FAIRMiner",
  "sourceName": "contracts/FAIRMiner.sol",
  "abi": [
    {
      "inputs": [],
      "stateMutability": "nonpayable",
      "type": "constructor"
    },
    {
      "inputs": [],
      "name": "ERC721EnumerableForbiddenBatchMint",
      "type": "error"
    },
    {
      "inputs": [
        {
          "internalType": "address",
          "name": "sender",
          "type": "address"
        },
        {
          "internalType": "uint256",
          "name": "tokenId",
          "type": "uint256"
        },
        {
          "internalType": "address",
          "name": "owner",
          "type": "address"
        }
      ],
      "name": "ERC721IncorrectOwner",
      "type": "error"
    },
    {
      "inputs": [
        {
          "internalType": "address",
          "name": "operator",
          "type": "address"
        },
        {
          "internalType": "uint256",
          "name": "tokenId",
          "type": "uint256"
        }
      ],
      "name": "ERC721InsufficientApproval",
      "type": "error"
    },
    {
      "inputs": [
        {
          "internalType": "address",
          "name": "approver",
          "type": "address"
        }
      ],
      "name": "ERC721InvalidApprover",
      "type": "error"
    },
    {
      "inputs": [
        {
          "internalType": "address",
          "name": "operator",
          "type": "address"
        }
      ],
      "name": "ERC721InvalidOperator",
      "type": "error"
    },
    {
      "inputs": [
        {
          "internalType": "address",
          "name": "owner",
          "type": "address"
        }
      ],
      "name": "ERC721InvalidOwner",
      "type": "error"
    },
    {
      "inputs": [
        {
          "internalType": "address",
          "name": "receiver",
          "type": "address"
        }
      ],
      "name": "ERC721InvalidReceiver",
      "type": "error"
    },
    {
      "inputs": [
        {
          "internalType": "address",
          "name": "sender",
          "type": "address"
        }
      ],
      "name": "ERC721InvalidSender",
      "type": "error"
    },
    {
      "inputs": [
        {
          "internalType": "uint256",
          "name": "tokenId",
          "type": "uint256"
        }
      ],
      "name": "ERC721NonexistentToken",
      "type": "error"
    },
    {
      "inputs": [
        {
          "internalType": "address",
          "name": "owner",
          "type": "address"
        },
        {
          "internalType": "uint256",
          "name": "index",
          "type": "uint256"
        }
      ],
      "name": "ERC721OutOfBoundsIndex",
      "type": "error"
    },
    {
      "inputs": [
        {
          "internalType": "address",
          "name": "owner",
          "type": "address"
        }
      ],
      "name": "OwnableInvalidOwner",
      "type": "error"
    },
    {
      "inputs": [
        {
          "internalType": "address",
          "name": "account",
          "type": "address"
        }
      ],
      "name": "OwnableUnauthorizedAccount",
      "type": "error"
    },
    {
      "anonymous": false,
      "inputs": [
        {
          "indexed": true,
          "internalType": "address",
          "name": "owner",
          "type": "address"
        },
        {
          "indexed": true,
          "internalType": "address",
          "name": "approved",
          "type": "address"
        },
        {
          "indexed": true,
          "internalType": "uint256",
          "name": "tokenId",
          "type": "uint256"
        }
      ],
      "name": "Approval",
      "type": "event"
    },
    {
      "anonymous": false,
      "inputs": [
        {
          "indexed": true,
          "internalType": "address",
          "name": "owner",
          "type": "address"
        },
        {
          "indexed": true,
          "internalType": "address",
          "name": "operator",
          "type": "address"
        },
        {
          "indexed": false,
          "internalType": "bool",
          "name": "approved",
          "type": "bool"
        }
      ],
      "name": "ApprovalForAll",
      "type": "event"
    },
    {
      "anonymous": false,
      "inputs": [
        {
          "indexed": true,
          "internalType": "address",
          "name": "minter",
          "type": "address"
        }
      ],
      "name": "AuthorizedMinterUpdated",
      "type": "event"
    },
    {
      "anonymous": false,
      "inputs": [
        {
          "indexed": false,
          "internalType": "string",
          "name": "baseURI",
          "type": "string"
        }
      ],
      "name": "BaseURIUpdated",
      "type": "event"
    },
    {
      "anonymous": false,
      "inputs": [
        {
          "indexed": true,
          "internalType": "address",
          "name": "to",
          "type": "address"
        },
        {
          "indexed": true,
          "internalType": "uint256",
          "name": "tokenId",
          "type": "uint256"
        },
        {
          "indexed": false,
          "internalType": "enum FAIRMiner.MinerTier",
          "name": "tier",
          "type": "uint8"
        },
        {
          "indexed": false,
          "internalType": "uint256",
          "name": "miningPower",
          "type": "uint256"
        }
      ],
      "name": "MinerMinted",
      "type": "event"
    },
    {
      "anonymous": false,
      "inputs": [
        {
          "indexed": true,
          "internalType": "address",
          "name": "previousOwner",
          "type": "address"
        },
        {
          "indexed": true,
          "internalType": "address",
          "name": "newOwner",
          "type": "address"
        }
      ],
      "name": "OwnershipTransferred",
      "type": "event"
    },
    {
      "anonymous": false,
      "inputs": [
        {
          "indexed": true,
          "internalType": "address",
          "name": "from",
          "type": "address"
        },
        {
          "indexed": true,
          "internalType": "address",
          "name": "to",
          "type": "address"
        },
        {
          "indexed": true,
          "internalType": "uint256",
          "name": "tokenId",
          "type": "uint256"
        }
      ],
      "name": "Transfer",
      "type": "event"
    },
    {
      "inputs": [
        {
          "internalType": "address",
          "name": "to",
          "type": "address"
        },
        {
          "internalType": "uint256",
          "name": "tokenId",
          "type": "uint256"
        }
      ],
      "name": "approve",
      "outputs": [],
      "stateMutability": "nonpayable",
      "type": "function"
    },
    {
      "inputs": [],
      "name": "authorizedMinter",
      "outputs": [
        {
          "internalType": "address",
          "name": "",
          "type": "address"
        }
      ],
      "stateMutability": "view",
      "type": "function"
    },
    {
      "inputs": [
        {
          "internalType": "address",
          "name": "owner",
          "type": "address"
        }
      ],
      "name": "balanceOf",
      "outputs": [
        {
          "internalType": "uint256",
          "name": "",
          "type": "uint256"
        }
      ],
      "stateMutability": "view",
      "type": "function"
    },
    {
      "inputs": [
        {
          "internalType": "uint256",
          "name": "tokenId",
          "type": "uint256"
        }
      ],
      "name": "getApproved",
      "outputs": [
        {
          "internalType": "address",
          "name": "",
          "type": "address"
        }
      ],
      "stateMutability": "view",
      "type": "function"
    },
    {
      "inputs": [
        {
          "internalType": "enum FAIRMiner.MinerTier",
          "name": "tier",
          "type": "uint8"
        }
      ],
      "name": "getAvailableSupply",
      "outputs": [
        {
          "internalType": "uint256",
          "name": "",
          "type": "uint256"
        }
      ],
      "stateMutability": "view",
      "type": "function"
    },
    {
      "inputs": [
        {
          "internalType": "uint256",
          "name": "tokenId",
          "type": "uint256"
        }
      ],
      "name": "getMinerData",
      "outputs": [
        {
          "components": [
            {
              "internalType": "enum FAIRMiner.MinerTier",
              "name": "tier",
              "type": "uint8"
            },
            {
              "internalType": "uint256",
              "name": "miningPower",
              "type": "uint256"
            },
            {
              "internalType": "uint256",
              "name": "mintTimestamp",
              "type": "uint256"
            }
          ],
          "internalType": "struct FAIRMiner.MinerData",
          "name": "",
          "type": "tuple"
        }
      ],
      "stateMutability": "view",
      "type": "function"
    },
    {
      "inputs": [
        {
          "internalType": "enum FAIRMiner.MinerTier",
          "name": "tier",
          "type": "uint8"
        }
      ],
      "name": "getTierConfig",
      "outputs": [
        {
          "components": [
            {
              "internalType": "uint256",
              "name": "price",
              "type": "uint256"
            },
            {
              "internalType": "uint256",
              "name": "miningPower",
              "type": "uint256"
            },
            {
              "internalType": "uint256",
              "name": "maxSupply",
              "type": "uint256"
            },
            {
              "internalType": "uint256",
              "name": "minted",
              "type": "uint256"
            }
          ],
          "internalType": "struct FAIRMiner.TierConfig",
          "name": "",
          "type": "tuple"
        }
      ],
      "stateMutability": "view",
      "type": "function"
    },
    {
      "inputs": [
        {
          "internalType": "address",
          "name": "owner",
          "type": "address"
        },
        {
          "internalType": "address",
          "name": "operator",
          "type": "address"
        }
      ],
      "name": "isApprovedForAll",
      "outputs": [
        {
          "internalType": "bool",
          "name": "",
          "type": "bool"
        }
      ],
      "stateMutability": "view",
      "type": "function"
    },
    {
      "inputs": [
        {
          "internalType": "uint256",
          "name": "",
          "type": "uint256"
        }
      ],
      "name": "miners",
      "outputs": [
        {
          "internalType": "enum FAIRMiner.MinerTier",
          "name": "tier",
          "type": "uint8"
        },
        {
          "internalType": "uint256",
          "name": "miningPower",
          "type": "uint256"
        },
        {
          "internalType": "uint256",
          "name": "mintTimestamp",
          "type": "uint256"
        }
      ],
      "stateMutability": "view",
      "type": "function"
    },
    {
      "inputs": [
        {
          "internalType": "address",
          "name": "to",
          "type": "address"
        },
        {
          "internalType": "enum FAIRMiner.MinerTier",
          "name": "tier",
          "type": "uint8"
        }
      ],
      "name": "mint",
      "outputs": [
        {
          "internalType": "uint256",
          "name": "",
          "type": "uint256"
        }
      ],
      "stateMutability": "nonpayable",
      "type": "function"
    },
    {
      "inputs": [],
      "name": "name",
      "outputs": [
        {
          "internalType": "string",
          "name": "",
          "type": "string"
        }
      ],
      "stateMutability": "view",
      "type": "function"
    },
    {
      "inputs": [],
      "name": "owner",
      "outputs": [
        {
          "internalType": "address",
          "name": "",
          "type": "address"
        }
      ],
      "stateMutability": "view",
      "type": "function"
    },
    {
      "inputs": [
        {
          "internalType": "uint256",
          "name": "tokenId",
          "type": "uint256"
        }
      ],
      "name": "ownerOf",
      "outputs": [
        {
          "internalType": "address",
          "name": "",
          "type": "address"
        }
      ],
      "stateMutability": "view",
      "type": "function"
    },
    {
      "inputs": [],
      "name": "renounceOwnership",
      "outputs": [],
      "stateMutability": "nonpayable",
      "type": "function"
    },
    {
      "inputs": [
        {
          "internalType": "address",
          "name": "from",
          "type": "address"
        },
        {
          "internalType": "address",
          "name": "to",
          "type": "address"
        },
        {
          "internalType": "uint256",
          "name": "tokenId",
          "type": "uint256"
        }
      ],
      "name": "safeTransferFrom",
      "outputs": [],
      "stateMutability": "nonpayable",
      "type": "function"
    },
    {
      "inputs": [
        {
          "internalType": "address",
          "name": "from",
          "type": "address"
        },
        {
          "internalType": "address",
          "name": "to",
          "type": "address"
        },
        {
          "internalType": "uint256",
          "name": "tokenId",
          "type": "uint256"
        },
        {
          "internalType": "bytes",
          "name": "data",
          "type": "bytes"
        }
      ],
      "name": "safeTransferFrom",
      "outputs": [],
      "stateMutability": "nonpayable",
      "type": "function"
    },
    {
      "inputs": [
        {
          "internalType": "address",
          "name": "operator",
          "type": "address"
        },
        {
          "internalType": "bool",
          "name": "approved",
          "type": "bool"
        }
      ],
      "name": "setApprovalForAll",
      "outputs": [],
      "stateMutability": "nonpayable",
      "type": "function"
    },
    {
      "inputs": [
        {
          "internalType": "address",
          "name": "minter",
          "type": "address"
        }
      ],
      "name": "setAuthorizedMinter",
      "outputs": [],
      "stateMutability": "nonpayable",
      "type": "function"
    },
    {
      "inputs": [
        {
          "internalType": "string",
          "name": "baseURI",
          "type": "string"
        }
      ],
      "name": "setBaseURI",
      "outputs": [],
      "stateMutability": "nonpayable",
      "type": "function"
    },
    {
      "inputs": [
        {
          "internalType": "bytes4",
          "name": "interfaceId",
          "type": "bytes4"
        }
      ],
      "name": "supportsInterface",
      "outputs": [
        {
          "internalType": "bool",
          "name": "",
          "type": "bool"
        }
      ],
      "stateMutability": "view",
      "type": "function"
    },
    {
      "inputs": [],
      "name": "symbol",
      "outputs": [
        {
          "internalType": "string",
          "name": "",
          "type": "string"
        }
      ],
      "stateMutability": "view",
      "type": "function"
    },
    {
      "inputs": [
        {
          "internalType": "enum FAIRMiner.MinerTier",
          "name": "",
          "type": "uint8"
        }
      ],
      "name": "tierConfigs",
      "outputs": [
        {
          "internalType": "uint256",
          "name": "price",
          "type": "uint256"
        },
        {
          "internalType": "uint256",
          "name": "miningPower",
          "type": "uint256"
        },
        {
          "internalType": "uint256",
          "name": "maxSupply",
          "type": "uint256"
        },
        {
          "internalType": "uint256",
          "name": "minted",
          "type": "uint256"
        }
      ],
      "stateMutability": "view",
      "type": "function"
    },
    {
      "inputs": [
        {
          "internalType": "uint256",
          "name": "index",
          "type": "uint256"
        }
      ],
      "name": "tokenByIndex",
      "outputs": [
        {
          "internalType": "uint256",
          "name": "",
          "type": "uint256"
        }
      ],
      "stateMutability": "view",
      "type": "function"
    },
    {
      "inputs": [
        {
          "internalType": "address",
          "name": "owner",
          "type": "address"
        },
        {
          "internalType": "uint256",
          "name": "index",
          "type": "uint256"
        }
      ],
      "name": "tokenOfOwnerByIndex",
      "outputs": [
        {
          "internalType": "uint256",
          "name": "",
          "type": "uint256"
        }
      ],
      "stateMutability": "view",
      "type": "function"
    },
    {
      "inputs": [
        {
          "internalType": "uint256",
          "name": "tokenId",
          "type": "uint256"
        }
      ],
      "name": "tokenURI",
      "outputs": [
        {
          "internalType": "string",
          "name": "",
          "type": "string"
        }
      ],
      "stateMutability": "view",
      "type": "function"
    },
    {
      "inputs": [
        {
          "internalType": "address",
          "name": "owner",
          "type": "address"
        }
      ],
      "name": "tokensOfOwner",
      "outputs": [
        {
          "internalType": "uint256[]",
          "name": "",
          "type": "uint256[]"
        }
      ],
      "stateMutability": "view",
      "type": "function"
    },
    {
      "inputs": [],
      "name": "totalSupply",
      "outputs": [
        {
          "internalType": "uint256",
          "name": "",
          "type": "uint256"
        }
      ],
      "stateMutability": "view",
      "type": "function"
    },
    {
      "inputs": [
        {
          "internalType": "address",
          "name": "from",
          "type": "address"
        },
        {
          "internalType": "address",
          "name": "to",
          "type": "address"
        },
        {
          "internalType": "uint256",
          "name": "tokenId",
          "type": "uint256"
        }
      ],
      "name": "transferFrom",
      "outputs": [],
      "stateMutability": "nonpayable",
      "type": "function"
    },
    {
      "inputs": [
        {
          "internalType": "address",
          "name": "newOwner",
          "type": "address"
        }
      ],
      "name": "transferOwnership",
      "outputs": [],
      "stateMutability": "nonpayable",
      "type": "function"
    }
  ],
  "bytecode": "0x60806040526001600d553480156200001657600080fd5b50336040518060400160405280600a8152602001692320a4a91026b4b732b960b11b815250604051806040016040528060068152602001652326a4a722a960d11b81525081600090816200006b919062000371565b5060016200007a828262000371565b5050506001600160a01b038116620000ac57604051631e4fbdf760e01b81526000600482015260240160405180910390fd5b620000b7816200027a565b50604051806080016040528069021e19e0c9bab24000008152602001606481526020016109c481526020016000815250600b60008060028111156200010057620001006200043d565b60028111156200011457620001146200043d565b815260200190815260200160002060008201518160000155602082015181600101556040820151816002015560608201518160030155905050604051806080016040528069065a4da25d3016c00000815260200160fa81526020016105dc81526020016000815250600b6000600160028111156200019657620001966200043d565b6002811115620001aa57620001aa6200043d565b8152602001908152602001600020600082015181600001556020820151816001015560408201518160020155606082015181600301559050506040518060800160405280690fe1c215e8f838e0000081526020016101f481526020016103e881526020016000815250600b60006002808111156200022c576200022c6200043d565b60028111156200024057620002406200043d565b8152602080820192909252604090810160002083518155918301516001830155820151600282015560609091015160039091015562000453565b600a80546001600160a01b038381166001600160a01b0319831681179093556040519116919082907f8be0079c531659141344cd1fd0a4f28419497f9722a3daafe3b4186f6b6457e090600090a35050565b634e487b7160e01b600052604160045260246000fd5b600181811c90821680620002f757607f821691505b6020821081036200031857634e487b7160e01b600052602260045260246000fd5b50919050565b601f8211156200036c57600081815260208120601f850160051c81016020861015620003475750805b601f850160051c820191505b81811015620003685782815560010162000353565b5050505b505050565b81516001600160401b038111156200038d576200038d620002cc565b620003a5816200039e8454620002e2565b846200031e565b602080601f831160018114620003dd5760008415620003c45750858301515b600019600386901b1c1916600185901b17855562000368565b600085815260208120601f198616915b828110156200040e57888601518255948401946001909101908401620003ed565b50858210156200042d5787850151600019600388901b60f8161c191681555b5050505050600190811b01905550565b634e487b7160e01b600052602160045260246000fd5b611f2380620004636000396000f3fe608060405234801561001057600080fd5b50600436106101cf5760003560e01c8063691562a011610104578063a22cb465116100a2578063e0d152af11610071578063e0d152af14610449578063e985e9c51461048b578063f2fde38b1461049e578063f538f7f3146104b157600080fd5b8063a22cb465146103ca578063b88d4fde146103dd578063c022c523146103f0578063c87b56dd1461043657600080fd5b80638462151c116100de5780638462151c1461033c5780638da5cb5b1461035c57806395d89b411461036d5780639da9db2a1461037557600080fd5b8063691562a01461030e57806370a0823114610321578063715018a61461033457600080fd5b806323b872dd1161017157806342842e0e1161014b57806342842e0e146102c25780634f6ccce7146102d557806355f804b3146102e85780636352211e146102fb57600080fd5b806323b872dd146102895780632f745c591461029c57806333b1c0dc146102af57600080fd5b8063095ea7b3116101ad578063095ea7b31461023c57806318160ddd146102515780631928b7c3146102635780631ba538cd1461027657600080fd5b806301ffc9a7146101d457806306fdde03146101fc578063081812fc14610211575b600080fd5b6101e76101e2366004611889565b6104d1565b60405190151581526020015b60405180910390f35b6102046104e2565b6040516101f391906118f6565b61022461021f366004611909565b610574565b6040516001600160a01b0390911681526020016101f3565b61024f61024a36600461193e565b61059d565b005b6008545b6040519081526020016101f3565b61024f610271366004611968565b6105ac565b600f54610224906001600160a01b031681565b61024f610297366004611983565b610652565b6102556102aa36600461193e565b6106dd565b6102556102bd3660046119ce565b610742565b61024f6102d0366004611983565b6107c1565b6102556102e3366004611909565b6107e1565b61024f6102f6366004611a75565b61083a565b610224610309366004611909565b610889565b61025561031c366004611abe565b610894565b61025561032f366004611968565b610abc565b61024f610b04565b61034f61034a366004611968565b610b18565b6040516101f39190611af1565b600a546001600160a01b0316610224565b610204610bba565b6103aa6103833660046119ce565b600b6020526000908152604090208054600182015460028301546003909301549192909184565b6040805194855260208501939093529183015260608201526080016101f3565b61024f6103d8366004611b35565b610bc9565b61024f6103eb366004611b71565b610bd4565b6104036103fe3660046119ce565b610bec565b6040516101f391908151815260208083015190820152604080830151908201526060918201519181019190915260800190565b610204610444366004611909565b610c86565b61047c610457366004611909565b600c6020526000908152604090208054600182015460029092015460ff909116919083565b6040516101f393929190611c25565b6101e7610499366004611c44565b610ced565b61024f6104ac366004611968565b610d1b565b6104c46104bf366004611909565b610d59565b6040516101f39190611c6e565b60006104dc82610e36565b92915050565b6060600080546104f190611c9b565b80601f016020809104026020016040519081016040528092919081815260200182805461051d90611c9b565b801561056a5780601f1061053f5761010080835404028352916020019161056a565b820191906000526020600020905b81548152906001019060200180831161054d57829003601f168201915b5050505050905090565b600061057f82610e5b565b506000828152600460205260409020546001600160a01b03166104dc565b6105a8828233610e94565b5050565b6105b4610ea1565b6001600160a01b0381166106085760405162461bcd60e51b8152602060048201526016602482015275496e76616c6964206d696e746572206164647265737360501b60448201526064015b60405180910390fd5b600f80546001600160a01b0319166001600160a01b0383169081179091556040517f22f4232b4b10ff18b9664d275d7c8d22a51d252662889574fb0e5efb5af208fd90600090a250565b6001600160a01b03821661067c57604051633250574960e11b8152600060048201526024016105ff565b6000610689838333610ece565b9050836001600160a01b0316816001600160a01b0316146106d7576040516364283d7b60e01b81526001600160a01b03808616600483015260248201849052821660448201526064016105ff565b50505050565b60006106e883610abc565b82106107195760405163295f44f760e21b81526001600160a01b0384166004820152602481018390526044016105ff565b506001600160a01b03919091166000908152600660209081526040808320938352929052205490565b600080600b600084600281111561075b5761075b611bed565b600281111561076c5761076c611bed565b81526020808201929092526040908101600020815160808101835281548152600182015493810193909352600281015491830182905260030154606083018190529192506107ba9190611ceb565b9392505050565b6107dc83838360405180602001604052806000815250610bd4565b505050565b60006107ec60085490565b82106108155760405163295f44f760e21b815260006004820152602481018390526044016105ff565b6008828154811061082857610828611cfe565b90600052602060002001549050919050565b610842610ea1565b600e61084e8282611d5a565b507f6741b2fc379fad678116fe3d4d4b9a1a184ab53ba36b86ad0fa66340b1ab41ad8160405161087e91906118f6565b60405180910390a150565b60006104dc82610e5b565b600f546000906001600160a01b031633146108e25760405162461bcd60e51b815260206004820152600e60248201526d139bdd08185d5d1a1bdc9a5e995960921b60448201526064016105ff565b6001600160a01b03831661092c5760405162461bcd60e51b8152602060048201526011602482015270125b9d985b1a59081c9958da5c1a595b9d607a1b60448201526064016105ff565b6000600b600084600281111561094457610944611bed565b600281111561095557610955611bed565b8152602001908152602001600020905080600201548160030154106109ac5760405162461bcd60e51b815260206004820152600d60248201526c151a595c881cdbdb19081bdd5d609a1b60448201526064016105ff565b600d8054600091826109bd83611e1a565b9091555060038301805491925060006109d583611e1a565b919050555060405180606001604052808560028111156109f7576109f7611bed565b81526020018360010154815260200142815250600c600083815260200190815260200160002060008201518160000160006101000a81548160ff02191690836002811115610a4757610a47611bed565b021790555060208201516001820155604090910151600290910155610a6c8582610ee3565b80856001600160a01b03167fa6ba32a8fb075f5f5e8dc8eaf6e8e8714f2bf808b276ebc6935c97d98a67d11b868560010154604051610aac929190611e33565b60405180910390a3949350505050565b60006001600160a01b038216610ae8576040516322718ad960e21b8152600060048201526024016105ff565b506001600160a01b031660009081526003602052604090205490565b610b0c610ea1565b610b166000610efd565b565b60606000610b2583610abc565b905060008167ffffffffffffffff811115610b4257610b426119e9565b604051908082528060200260200182016040528015610b6b578160200160208202803683370190505b50905060005b82811015610bb257610b8385826106dd565b828281518110610b9557610b95611cfe565b602090810291909101015280610baa81611e1a565b915050610b71565b509392505050565b6060600180546104f190611c9b565b6105a8338383610f4f565b610bdf848484610652565b6106d73385858585610fee565b610c176040518060800160405280600081526020016000815260200160008152602001600081525090565b600b6000836002811115610c2d57610c2d611bed565b6002811115610c3e57610c3e611bed565b81526020019081526020016000206040518060800160405290816000820154815260200160018201548152602001600282015481526020016003820154815250509050919050565b6060610c9182610e5b565b506000610c9c611119565b90506000815111610cbc57604051806020016040528060008152506107ba565b80610cc684611128565b604051602001610cd7929190611e4e565b6040516020818303038152906040529392505050565b6001600160a01b03918216600090815260056020908152604080832093909416825291909152205460ff1690565b610d23610ea1565b6001600160a01b038116610d4d57604051631e4fbdf760e01b8152600060048201526024016105ff565b610d5681610efd565b50565b610d7e6040805160608101909152806000815260200160008152602001600081525090565b6000610d8983610889565b6001600160a01b031603610dd65760405162461bcd60e51b8152602060048201526014602482015273151bdad95b88191bd95cc81b9bdd08195e1a5cdd60621b60448201526064016105ff565b6000828152600c6020526040908190208151606081019092528054829060ff166002811115610e0757610e07611bed565b6002811115610e1857610e18611bed565b81526001820154602082015260029091015460409091015292915050565b60006001600160e01b0319821663780e9d6360e01b14806104dc57506104dc826111bb565b6000818152600260205260408120546001600160a01b0316806104dc57604051637e27328960e01b8152600481018490526024016105ff565b6107dc838383600161120b565b600a546001600160a01b03163314610b165760405163118cdaa760e01b81523360048201526024016105ff565b6000610edb848484611311565b949350505050565b6105a88282604051806020016040528060008152506113de565b600a80546001600160a01b038381166001600160a01b0319831681179093556040519116919082907f8be0079c531659141344cd1fd0a4f28419497f9722a3daafe3b4186f6b6457e090600090a35050565b6001600160a01b038216610f8157604051630b61174360e31b81526001600160a01b03831660048201526024016105ff565b6001600160a01b03838116600081815260056020908152604080832094871680845294825291829020805460ff191686151590811790915591519182527f17307eab39ab6107e8899845ad3d59bd9653f200f220920489ca2b5937696c31910160405180910390a3505050565b6001600160a01b0383163b1561111257604051630a85bd0160e11b81526001600160a01b0384169063150b7a0290611030908890889087908790600401611e7d565b6020604051808303816000875af192505050801561106b575060408051601f3d908101601f1916820190925261106891810190611eba565b60015b6110d4573d808015611099576040519150601f19603f3d011682016040523d82523d6000602084013e61109e565b606091505b5080516000036110cc57604051633250574960e11b81526001600160a01b03851660048201526024016105ff565b805160208201fd5b6001600160e01b03198116630a85bd0160e11b1461111057604051633250574960e11b81526001600160a01b03851660048201526024016105ff565b505b5050505050565b6060600e80546104f190611c9b565b60606000611135836113f6565b600101905060008167ffffffffffffffff811115611155576111556119e9565b6040519080825280601f01601f19166020018201604052801561117f576020820181803683370190505b5090508181016020015b600019016f181899199a1a9b1b9c1cb0b131b232b360811b600a86061a8153600a850494508461118957509392505050565b60006001600160e01b031982166380ac58cd60e01b14806111ec57506001600160e01b03198216635b5e139f60e01b145b806104dc57506301ffc9a760e01b6001600160e01b03198316146104dc565b808061121f57506001600160a01b03821615155b156112e157600061122f84610e5b565b90506001600160a01b0383161580159061125b5750826001600160a01b0316816001600160a01b031614155b801561126e575061126c8184610ced565b155b156112975760405163a9fbf51f60e01b81526001600160a01b03841660048201526024016105ff565b81156112df5783856001600160a01b0316826001600160a01b03167f8c5be1e5ebec7d5bd14f71427d1e84f3dd0314c0f7b2291e5b200ac8c7c3b92560405160405180910390a45b505b5050600090815260046020526040902080546001600160a01b0319166001600160a01b0392909216919091179055565b60008061131f8585856114ce565b90506001600160a01b03811661137c5761137784600880546000838152600960205260408120829055600182018355919091527ff3f7a9fe364faab93b216da50a3214154f22a0a2b415b23a84c8169e8b636ee30155565b61139f565b846001600160a01b0316816001600160a01b03161461139f5761139f81856115c7565b6001600160a01b0385166113bb576113b684611648565b610edb565b846001600160a01b0316816001600160a01b031614610edb57610edb85856116f7565b6113e88383611747565b6107dc336000858585610fee565b60008072184f03e93ff9f4daa797ed6e38ed64bf6a1f0160401b83106114355772184f03e93ff9f4daa797ed6e38ed64bf6a1f0160401b830492506040015b6d04ee2d6d415b85acef81000000008310611461576d04ee2d6d415b85acef8100000000830492506020015b662386f26fc10000831061147f57662386f26fc10000830492506010015b6305f5e1008310611497576305f5e100830492506008015b61271083106114ab57612710830492506004015b606483106114bd576064830492506002015b600a83106104dc5760010192915050565b6000828152600260205260408120546001600160a01b03908116908316156114fb576114fb8184866117ac565b6001600160a01b038116156115395761151860008560008061120b565b6001600160a01b038116600090815260036020526040902080546000190190555b6001600160a01b03851615611568576001600160a01b0385166000908152600360205260409020805460010190555b60008481526002602052604080822080546001600160a01b0319166001600160a01b0389811691821790925591518793918516917fddf252ad1be2c89b69c2b068fc378daa952ba7f163c4a11628f55a4df523b3ef91a4949350505050565b60006115d283610abc565b6000838152600760209081526040808320546001600160a01b038816845260069092529091209192509081831461162957600083815260208281526040808320548584528184208190558352600790915290208290555b6000938452600760209081526040808620869055938552525081205550565b60085460009061165a90600190611ceb565b6000838152600960205260408120546008805493945090928490811061168257611682611cfe565b9060005260206000200154905080600883815481106116a3576116a3611cfe565b60009182526020808320909101929092558281526009909152604080822084905585825281205560088054806116db576116db611ed7565b6001900381819060005260206000200160009055905550505050565b6000600161170484610abc565b61170e9190611ceb565b6001600160a01b039093166000908152600660209081526040808320868452825280832085905593825260079052919091209190915550565b6001600160a01b03821661177157604051633250574960e11b8152600060048201526024016105ff565b600061177f83836000610ece565b90506001600160a01b038116156107dc576040516339e3563760e11b8152600060048201526024016105ff565b6117b7838383611810565b6107dc576001600160a01b0383166117e557604051637e27328960e01b8152600481018290526024016105ff565b60405163177e802f60e01b81526001600160a01b0383166004820152602481018290526044016105ff565b60006001600160a01b03831615801590610edb5750826001600160a01b0316846001600160a01b0316148061184a575061184a8484610ced565b80610edb5750506000908152600460205260409020546001600160a01b03908116911614919050565b6001600160e01b031981168114610d5657600080fd5b60006020828403121561189b57600080fd5b81356107ba81611873565b60005b838110156118c15781810151838201526020016118a9565b50506000910152565b600081518084526118e28160208601602086016118a6565b601f01601f19169290920160200192915050565b6020815260006107ba60208301846118ca565b60006020828403121561191b57600080fd5b5035919050565b80356001600160a01b038116811461193957600080fd5b919050565b6000806040838503121561195157600080fd5b61195a83611922565b946020939093013593505050565b60006020828403121561197a57600080fd5b6107ba82611922565b60008060006060848603121561199857600080fd5b6119a184611922565b92506119af60208501611922565b9150604084013590509250925092565b80356003811061193957600080fd5b6000602082840312156119e057600080fd5b6107ba826119bf565b634e487b7160e01b600052604160045260246000fd5b600067ffffffffffffffff80841115611a1a57611a1a6119e9565b604051601f8501601f19908116603f01168101908282118183101715611a4257611a426119e9565b81604052809350858152868686011115611a5b57600080fd5b858560208301376000602087830101525050509392505050565b600060208284031215611a8757600080fd5b813567ffffffffffffffff811115611a9e57600080fd5b8201601f81018413611aaf57600080fd5b610edb848235602084016119ff565b60008060408385031215611ad157600080fd5b611ada83611922565b9150611ae8602084016119bf565b90509250929050565b6020808252825182820181905260009190848201906040850190845b81811015611b2957835183529284019291840191600101611b0d565b50909695505050505050565b60008060408385031215611b4857600080fd5b611b5183611922565b915060208301358015158114611b6657600080fd5b809150509250929050565b60008060008060808587031215611b8757600080fd5b611b9085611922565b9350611b9e60208601611922565b925060408501359150606085013567ffffffffffffffff811115611bc157600080fd5b8501601f81018713611bd257600080fd5b611be1878235602084016119ff565b91505092959194509250565b634e487b7160e01b600052602160045260246000fd5b60038110611c2157634e487b7160e01b600052602160045260246000fd5b9052565b60608101611c338286611c03565b602082019390935260400152919050565b60008060408385031215611c5757600080fd5b611c6083611922565b9150611ae860208401611922565b6000606082019050611c81828451611c03565b602083015160208301526040830151604083015292915050565b600181811c90821680611caf57607f821691505b602082108103611ccf57634e487b7160e01b600052602260045260246000fd5b50919050565b634e487b7160e01b600052601160045260246000fd5b818103818111156104dc576104dc611cd5565b634e487b7160e01b600052603260045260246000fd5b601f8211156107dc57600081815260208120601f850160051c81016020861015611d3b5750805b601f850160051c820191505b8181101561111057828155600101611d47565b815167ffffffffffffffff811115611d7457611d746119e9565b611d8881611d828454611c9b565b84611d14565b602080601f831160018114611dbd5760008415611da55750858301515b600019600386901b1c1916600185901b178555611110565b600085815260208120601f198616915b82811015611dec57888601518255948401946001909101908401611dcd565b5085821015611e0a5787850151600019600388901b60f8161c191681555b5050505050600190811b01905550565b600060018201611e2c57611e2c611cd5565b5060010190565b60408101611e418285611c03565b8260208301529392505050565b60008351611e608184602088016118a6565b835190830190611e748183602088016118a6565b01949350505050565b6001600160a01b0385811682528416602082015260408101839052608060608201819052600090611eb0908301846118ca565b9695505050505050565b600060208284031215611ecc57600080fd5b81516107ba81611873565b634e487b7160e01b600052603160045260246000fdfea264697066735822122096bf67380a0dd770cbfb971955fc4f7361e4d48f7b7cac8516ef9ecca3409ccd64736f6c63430008140033",
  "linkReferences": {},
  "deployedLinkReferences": {}
}